:100000000C941D010C94D9030C94B2030C948B0333
:100010000C9464030C9445010C9445010C943D032D
:100020000C9445010C9445010C9400040C948A0531
:100030000C9445010C9445010C9445010C94450128
:100040000C9445010C9445010C9445010C94450118
:100050000C9445010C9445010C9445010C94490104
:100060000C9445010C9445010C9445010C944501F8
:100070000C9445010C9445010C9445010C944501E8
:100080000C9445010C9445010C9445010C944501D8
:100090000C94DF090C9445010C9445010C94450126
:1000A0000C9445010C9445010C9445017D15F11506
:1000B0002A163516AD14AD14AD14AD14AD143816A2
:1000C000AD14AD14AD14AD14AD1442165116670D38
:1000D0006A0D590D5D0D630D8B0D8B0D8B0D6E0D26
:1000E000720D760D7C0D800D8B0D860D4E414E49A7
:1000F0004E495459494E46CDCCCC3D0AD7233C17E6
:10010000B7D13877CC2B329595E6241FB14F0A0032
:100110000020410000C84200401C4620BCBE4CCA22
:100120001B0E5AAEC59D74080B00020202010009A5
:100130000400000102020000052400100105240152
:1001400001010424020605240600010705810310AD
:10015000004009040100020A0000000705020240F5
:100160000000070583024000000403090412010097
:1001700002EF020140412323A000010102030141DB
:10018000726475696E6F204C4C4300536B79446503
:100190006653696D204152432D313539202B20544F
:1001A0004143414E00070605040100080A0B0C0DEF
:1001B0000900000000240027002A002D0030000064
:1001C000000000250028002B002E00310000000058
:1001D000002300260029002C002F0004040404043E
:1001E00003040502020202040302020202060606DA
:1001F0000606060404020202040404080201104078
:10020000804010204080408008020401804020107F
:100210000201108010204040200000000200090F61
:100220000000030401000C000000000000000000BA
:100230000000000000000000121811241FBECFEFC4
:10024000DAE0DEBFCDBF11E0A0E0B1E0EEE6F0E421
:1002500002C005900D92AC3DB107D9F723E0ACED9B
:10026000B1E001C01D92AE3EB207E1F711E0CDE171
:10027000D1E004C02197FE010E94CC1ECC31D107F1
:10028000C9F70E94EF120C9435200C9400000E94D4
:100290000E201F920F920FB60F9211242F933F93AF
:1002A0008F939F93AF93BF938091E9019091EA015F
:1002B000A091EB01B091EC013091440223E0230FB7
:1002C0002D3720F40196A11DB11D05C026E8230F8E
:1002D0000296A11DB11D209344028093E9019093E1
:1002E000EA01A093EB01B093EC018091BA029091E6
:1002F000BB02A091BC02B091BD020196A11DB11D2F
:100300008093BA029093BB02A093BC02B093BD024B
:10031000BF91AF919F918F913F912F910F900FBE01
:100320000F901F90189508954091530250915402D8
:10033000209151023091520242175307B4F4909128
:10034000E8009570E1F39091E80092FD19C0809368
:10035000F100809153029091540201968F73992776
:10036000892B19F48EEF8093E800809153029091CD
:1003700054020196909354028093530281E00895B1
:1003800080E00895DF92EF92FF920F931F93CF9337
:10039000DF93D82EF92EE42E062F10E0C801019627
:1003A000880F0E94940183E00E949401CD2DDF2DDF
:1003B0000C0F1D1FC017D10789F0E7FE03C0FE0117
:1003C000849101C088810E949401F82E80E00E94EF
:1003D00094018F2121968111EDCF01C081E0DF9141
:1003E000CF911F910F91FF90EF90DF9008952FB75D
:1003F000F89487708093E9009091E800892F8072CB
:1004000095FF04C09091F20080E4891B2FBF0895EE
:10041000615030F02091F100FC0120830196F8CF6B
:10042000289A84E68093BE020895CF92DF92EF92DD
:10043000FF920F931F93CF93DF936C017A018B018F
:10044000C0E0D0E0CE15DF0581F0D8016D918D01BF
:10045000D601ED91FC910190F081E02DC601099546
:10046000892B11F02196EECF7E01C701DF91CF914C
:100470001F910F91FF90EF90DF90CF900895CF9351
:10048000DF931F92CDB7DEB76983DC01ED91FC915C
:100490000280F381E02D41E050E0BE016F5F7F4FAD
:1004A00009950F90DF91CF91089583E08093E90043
:1004B0008091F200882319F08AE38093E800089580
:1004C00083E00E94F70190E00895FC018485958502
:1004D00097FD0BC09FB7F89482E08093E90080916C
:1004E000F2009FBF90E0019608959FB7F89482E0D4
:1004F0008093E9008091F2009FBF90E00895CF9330
:10050000DF93CDB7DEB7E0970FB6F894DEBF0FBE2E
:10051000CDBF80E3EAE4F1E0DE01119601900D9297
:100520008A95E1F7962F9F77903614F0905202C08B
:100530009E3231F0862F80789D3219F4806401C09C
:1005400080E820ED290F203350F4E1EDFFEFEC0FB0
:10055000FD1FE90FF11D97FDFA959081892BE0961B
:100560000FB6F894DEBF0FBECDBFDF91CF910895D7
:10057000DC01FB0112968C91129790E02481358169
:1005800082179307D1F491818081813A31F481E01F
:10059000913091F0933089F411C0813271F49B3025
:1005A00021F482811F968C9305C09A3031F48281A8
:1005B00050968C9381E00895089580E00895DC01C1
:1005C000FB0188E4808389E4818384E482831D962F
:1005D0009C911D979F709F5B93831D968D919C911D
:1005E0001E9724E0969587952A95E1F78F708F5B8B
:1005F000848385E008950F931F93CF93DF931F9219
:10060000CDB7DEB78C01FC018485958597FF0EC0C0
:10061000CE0101960E94DA0F019719F4898190E0CA
:1006200002C08FEF9FEFF80195878487F8018485DA
:1006300095850F90DF91CF911F910F910895CF93E2
:10064000DF931F92CDB7DEB7FC018485958597FDBA
:1006500005C02FEF3FEF358724870BC0CE010196F1
:100660000E94DA0F019719F4898190E002C08FEFA0
:100670009FEF0F90DF91CF9108951F920F920FB6C9
:100680000F9211242F933F934F935F936F937F9318
:100690008F939F93AF93BF93EF93FF93E0910801E4
:1006A000F09109010995FF91EF91BF91AF919F9151
:1006B0008F917F916F915F914F913F912F910F900B
:1006C0000FBE0F901F9018951F920F920FB60F92AA
:1006D00011242F933F934F935F936F937F938F9347
:1006E0009F93AF93BF93EF93FF93E0910601F09137
:1006F00007010995FF91EF91BF91AF919F918F9164
:100700007F916F915F914F913F912F910F900FBE0D
:100710000F901F9018951F920F920FB60F921124F1
:100720002F933F934F935F936F937F938F939F93F9
:10073000AF93BF93EF93FF93E0910401F091050114
:100740000995FF91EF91BF91AF919F918F917F910B
:100750006F915F914F913F912F910F900FBE0F902E
:100760001F9018951F920F920FB60F9211242F937E
:100770003F934F935F936F937F938F939F93AF9329
:10078000BF93EF93FF93E0910201F091030109956C
:10079000FF91EF91BF91AF919F918F917F916F9159
:1007A0005F914F913F912F910F900FBE0F901F902F
:1007B00018951F920F920FB60F9211242F933F930B
:1007C0004F935F936F937F938F939F93AF93BF9359
:1007D000EF93FF93E0910001F09101010995FF91E2
:1007E000EF91BF91AF919F918F917F916F915F91A9
:1007F0004F913F912F910F900FBE0F901F90189522
:100800001F920F920FB60F9211248F939F93809196
:10081000E1009091E100937F9093E10083FF0FC08E
:100820001092E90091E09093EB001092EC0092E3BB
:100830009093ED001092BF0298E09093F00082FF39
:1008400020C093E09093E9009091F200992319F071
:100850009AE39093E80090915602992339F0909191
:100860005602915090935602992389F19091BE02BD
:10087000992339F09091BE0291509093BE02992332
:1008800041F184FF10C08091E2008E7E81608093F0
:10089000E2008091E1008F7E8093E1008091DC0195
:1008A0008E7E806111C080FF16C08091E2008E7E36
:1008B00080618093E2008091E1008E7E8093E10070
:1008C0008091DC018E7E81608093DC0104C05D98A4
:1008D000CDCF2898D6CF9F918F910F900FBE0F90BC
:1008E0001F901895DF92EF92FF920F931F93CF9373
:1008F000DF93D82E8A017B01E40EF51EEB01CE15A5
:10090000DF0571F0D7FE03C0FE01849101C088812C
:100910000E94940121968111F2CF8FEF9FEF01C0C9
:10092000C801DF91CF911F910F91FF90EF90DF9061
:1009300008957F928F929F92AF92BF92CF92DF9253
:10094000EF92FF920F931F93CF93DF93C82E8B01EB
:100950007A018091BF02811103C08FEF9FEF70C0B9
:100960008091DC0180FF05C08091E000826080936F
:10097000E000CE2DDF2DD12C8AEFB82E8C2D877084
:10098000982E8C2D8072882E8C2D8074782E9AE370
:10099000A92E209719F4DD2009F44DC08C2D0E945A
:1009A000F701811106C0BA94BB20B9F20E9412125D
:1009B000F0CF282F30E0C217D3070CF48C2F9FB74D
:1009C000F8949092E9002091E80025FF32C0282F8A
:1009D00030E0C21BD30B882029F08150A0F0109288
:1009E000F100FBCFF801C7FE0AC0815050F04491DE
:1009F0004093F1003196F9CF41914093F10081503D
:100A0000D8F7020F131FDD2019F0A092E8000AC0EA
:100A10008091E80085FD08C0A092E800DD24D39411
:100A2000209739F0D12C05C0209719F47110A092AD
:100A3000E8009FBFAECF5D9A84E680935602C7015F
:100A4000DF91CF911F910F91FF90EF90DF90CF90AA
:100A5000BF90AF909F908F907F900895CF93DF933A
:100A6000EC0180912701882331F083E00E949904F2
:100A70001816190634F081E090E09B838A8380E0A9
:100A800090E0DF91CF9108958091490281110DC0CE
:100A900082E08093450284E08093460210924802EF
:100AA0001092470281E08093490285E492E0089524
:100AB0000F931F93CF93DF931F92CDB7DEB782E0E2
:100AC000898342E450E067E271E080E80E947204AA
:100AD0000E944405DC0112960D911C91139701159B
:100AE000110589F0D801ED91FC910280F381E02D90
:100AF000BE016F5F7F4FC801099597FD04C0F801E3
:100B000000851185ECCF89810F90DF91CF911F91E6
:100B10000F9108951F920F920FB60F921124CF924A
:100B2000DF92EF92FF920F931F932F933F934F9378
:100B30005F936F937F938F939F93AF93BF93EF9345
:100B4000FF93CF93DF93CDB7DEB76C97DEBFCDBFFA
:100B50001092E9008091E80083FFFBC168E0CE01BC
:100B600045960E94080282EF8093E8008D8987FFF6
:100B700005C09091E80090FFFCCF03C09EEF9093DA
:100B8000E800982F907609F0C6C09E894F89588D4D
:100B90002F89F88C91110CC0803829F48091DD01E7
:100BA0008093F10002C01092F1001092F10045C153
:100BB000913051F4811141C14130510509F03DC1DD
:100BC0008091DD018D7F0BC0933061F4811135C1BF
:100BD0004130510509F031C18091DD01826080937F
:100BE000DD012BC1953049F48091E80080FFFCCFF6
:100BF000822F80688093E30020C1963009F05EC0A8
:100C00000B8D1C8D22E01092E9001092540210927C
:100C10005302F21232C010925202109251020E94FC
:100C2000580599E0BE016F5F7F4FDB01E92F1D92F0
:100C3000EA95E9F79983FA8291E09E8390EA988792
:100C40009AEF99872091530230915402275F3F4FCA
:100C50003C832B838D831092E900109254021092F2
:100C60005302109352020093510249E050E080E099
:100C70000E9472040E945805E0C010935202009333
:100C800051020E944405DC0112960D911C911397AC
:100C90000115110509F4BBC0D801ED91FC91048048
:100CA000F581E02DBE016B5E7F4FC801099500976D
:100CB00009F0C7C0F80100851185EACF973009F423
:100CC00045C1983021F481E08093F100B6C099309D
:100CD00009F0B3C0837009F039C1E9E2F1E081E0C5
:100CE00031E096E32081211109C08EE78093EA006C
:100CF0001092EA008F898093BF029FC08093E90021
:100D00003093EB0021912093EC009093ED008F5FE6
:100D1000873041F7EACF8B8D9C8D1092E9001092BD
:100D20005402109253029093520280935102898D83
:100D3000811153C08E899D89913A49F4813209F01D
:100D400005C147E050E060E271E080E0BBC0913255
:100D500009F0FCC0833269F48F89988DA0E0B0E07F
:100D600080931C0190931D01A0931E01B0931F015D
:100D700064C0803269F48091E80082FFFCCF67E0B4
:100D800080E291E00E9408028BEF8093E80055C05A
:100D9000823209F052C08F8980932701EEEFFFE77E
:100DA000859194918B3F9C4D19F0E0E0F8E002C0F2
:100DB000EEEFFAE08091200190912101A0912201B3
:100DC000B0912301803B9440A105B10509F09EC07C
:100DD0008091270180FF79C099C00E944405FC01E1
:100DE000028113810115110509F4B0C0D801ED91FC
:100DF000FC910190F081E02DBE016B5E7F4FC80138
:100E0000099581111AC0F80100851185EBCFF1E039
:100E1000FF1609F44EC0F3E0FF1298C08F898823B3
:100E200009F44AC0823089F440E869E18BE891E036
:100E30000E94C201882309F489C08EEF8093E800E4
:100E400088C018161906CCF381C0813029F440E817
:100E50006BE08FE791E0ECCF833009F077C00E9420
:100E60004405DC011296ED90FC9013978E010F5F04
:100E70001F4F6801E114F10479F0D701ED91FC9165
:100E80000680F781E02DB801C7010995080F111DF3
:100E9000F701E084F184EECFD8011C92F6010190B5
:100EA0000020E9F73197BF016C197D0940E0C601C8
:100EB000BFCF6DE671E002C069E671E0FB014491CD
:100EC00050E080E80E947204B8CFEE3F2AE0F207BB
:100ED00051F0808191818737A7E79A0721F090939D
:100EE000FF0A8093FE0A87E797E7918380838091CA
:100EF0006000809355029BE088E10FB6F894A895B6
:100F0000809360000FBE9093600097CF80819181A5
:100F10008737974709F091CFA89580916000886145
:100F2000809360008091550280936000EE3FBAE0AC
:100F3000FB0739F08091FE0A9091FF0A918380832C
:100F40007CCF1092FF0A1092FE0A77CF81E2809345
:100F5000EB006C960FB6F894DEBF0FBECDBFDF91ED
:100F6000CF91FF91EF91BF91AF919F918F917F9121
:100F70006F915F914F913F912F911F910F91FF9032
:100F8000EF90DF90CF900F900FBE0F901F901895AD
:100F9000FC0182818F5BFB01808381E0089585EDF8
:100FA0008093BC008091BC0084FDFCCF1092E602CF
:100FB000089540919702262F30E0240F311D2132F1
:100FC0003105DCF42091E6022430C9F4FC0180E014
:100FD00090E0861758F4309197022191DC01A958CE
:100FE000BD4FA30FB11D2C930196F3CF80919702B3
:100FF000680F6093970280E0089581E0089582E091
:101000000895089508950895E091E3018091E20123
:10101000E81730F4F0E0E95AFD4F808190E0089540
:101020008FEF9FEF08959091E3018091E20198176F
:1010300050F4E92FF0E0E95AFD4F208130E09F5F46
:101040009093E30102C02FEF3FEFC9010895809113
:10105000E20190E02091E301821B91090895CF9273
:10106000DF92EF92FF920F931F93CF93DF937C0158
:10107000CB018A012091E702222389F0EB016B0169
:10108000C40ED51ECC15DD0569F06991D701ED912F
:10109000FC910190F081E02DC7010995F3CF642FF9
:1010A0000E94D907C801DF91CF911F910F91FF9046
:1010B000EF90DF90CF900895CF93DF931F92CDB73D
:1010C000DEB769832091E7022223D1F020910A0341
:1010D000203240F021E030E0FC013383228380E0C5
:1010E00090E015C08091E802E82FF0E0E751FD4F55
:1010F000998190838F5F8093E80280930A0305C0F3
:1011000061E0CE0101960E94D90781E090E00F9046
:10111000DF91CF910895089580E090E0089581E0F7
:101120008093E401089587E090E00197F1F7089536
:10113000EF92FF920F931F93CF93DF93FB012081D8
:10114000213869F52381223251F5DC0112962C9168
:1011500030E0448155814217530709F58C01FC01A9
:10116000C385D485E12CF12C209799F04C815D81C9
:101170006A817B818E81811180E80E9472048F3F99
:10118000FFEF9F0779F0E80EF91E0990D881C02D76
:10119000EBCF81E0D8011F968C93C70105C080E09A
:1011A00090E002C08FEF9FEFDF91CF911F910F91E1
:1011B000FF90EF900895CF93DF93CDB7DEB7699797
:1011C0000FB6F894DEBF0FBECDBFFC01DB018C91E2
:1011D0008F5F8C93BE016F5F7F4F89E1DB011D92B2
:1011E0008A95E9F729E0298384E08A8391E09D8349
:1011F00083E08E832A8721E22B879C879D879F87A8
:1012000022E2288B27E02B8B25E02C8B8E8B20E491
:1012100030E0388F2F8B998F82818B8395858685DF
:10122000998B8A8B838180688D8B49E150E080E0C7
:101230000E94720469960FB6F894DEBF0FBECDBF50
:10124000DF91CF9108959091E6029111FCCF91E04A
:101250009093E6029093E5022FEF2093E402109220
:10126000E3021092E2029093C1029091C102880FB2
:10127000892B8093C1028091C002813061F4109269
:10128000C0028091C1028093BB008091BC0083FDAD
:10129000F8CF85EC01C085EE8093BC008091E6021A
:1012A0008130E1F38091E302811103C09091E30268
:1012B00001C091E0A2ECB2E0E7E5F2E080E089173E
:1012C00021F02D9121938F5FFACF1092E30180934B
:1012D000E201882329F08BE593E00E94130808952A
:1012E0008FEF0895CF93DF93D82FC8E060E08EE0B2
:1012F0000E9431100E9493086D2F61708FE00E9450
:1013000031100E94930861E08EE00E9431100E942B
:101310009308D695C15051F760E08EE00E943110DD
:1013200062E08FE00E948C100E94930861E08EE0E2
:101330000E9431100E9493088FE00E940810EC0177
:1013400060E08EE00E94311061E08FE00E948C101E
:1013500081E0CD2B09F080E0DF91CF91089561E02D
:101360008FE00E948C1060E08EE00E9431100E949D
:10137000930860E08FE00E9431100E94930861E0C2
:101380008EE00E9431100E94930861E08FE00E947D
:1013900031100C94930861E08FE00E948C1061E0A2
:1013A0008FE00E94311061E08EE00E9431100E94B7
:1013B000930860E08FE00E9431100C9493081F9214
:1013C0000F920FB60F9211242F933F934F935F9379
:1013D0006F937F938F939F93AF93BF93EF93FF93FD
:1013E0008091B900887F803609F49CC068F5883206
:1013F00009F45BC090F4803109F454C038F48823B8
:1014000009F4F6C0883009F44DC0F6C0883109F4FB
:101410004CC0803209F45DC0EFC0803409F468C06C
:1014200048F4803309F455C0883309F0E5C080934F
:10143000E402D8C0803509F44FC0883509F45DC096
:10144000883409F0D9C0D6C0883909F4C7C0A8F4D7
:10145000883709F467C038F4883609F463C08037E8
:1014600009F460C0C9C0883809F4B8C0803909F4EB
:101470005FC0803809F0C0C05BC0803B09F486C003
:1014800038F4803A09F466C0883A09F47FC0B4C0E1
:10149000803C09F4A7C0883C09F4A4C0883B09F447
:1014A0008AC0AAC08091C10210C09091E3028091CD
:1014B000E202981770F5E091E30281E08E0F8093CD
:1014C000E302F0E0EE53FD4F80818093BB0085EC9A
:1014D00086C08093E4028EC0E091E30281E08E0F2B
:1014E0008093E3028091BB00F0E0EE53FD4F8083D8
:1014F0009091E3028091E2026EC0E091E30281E00C
:101500008E0F8093E3028091BB00F0E0EE53FD4F1D
:1015100080838091E50281116DC081E08093C002DB
:1015200084EA61C083E08093E6021092B902CFCFD3
:101530008091B902803208F051C0E091B90281E097
:101540008E0F8093B9028091BB00F0E0E756FD4F0B
:101550008083BDCF85EC8093BC001092E602809121
:10156000B902803230F4E091B902F0E0E756FD4F65
:1015700010826091B90270E0E091DE01F091DF012C
:1015800089E992E009951092B90236C084E080930F
:10159000E6021092980210929702E091E001F09119
:1015A000E101099580919702811105C081E0809346
:1015B000970210927702E091980281E08E0F80935B
:1015C0009802F0E0E958FD4F80818093BB00909134
:1015D000980280919702981708F479CF85E8809354
:1015E000BC000AC085EC8093BC001092E60204C0E7
:1015F0001092E4020E94CF07FF91EF91BF91AF914B
:101600009F918F917F916F915F914F913F912F911A
:101610000F900FBE0F901F90189591E09093E702E6
:10162000809309031092E80210920A036FEF8BE592
:1016300093E00E945C080C947E0F1F93CF93DF937E
:10164000162F0E940810EC01812F0E940810AC0197
:1016500021E030E0219711F020E030E0220F331F2D
:1016600081E04130510509F080E0822BDF91CF917C
:101670001F9108952F923F924F925F926F927F92A7
:101680008F929F92AF92BF92CF92DF92EF92FF9292
:101690000F931F93CF93DF9300D000D0CDB7DEB769
:1016A0008FB7F8944090E9015090EA016090EB0107
:1016B0007090EC018FBF81E00E940810892BC1F06F
:1016C0008091E401811114C08091E5019091E601BF
:1016D000A091E701B091E801A3019201281B390B09
:1016E0004A0B5B0B233331054105510508F419C141
:1016F00080E20E942309C82E81E20E9423098C8384
:1017000082E20E942309B82E83E20E9423098B8380
:1017100084E20E942309A82E4092E5015092E6013E
:101720006092E7017092E8011092E40180910A0151
:10173000C8120FC080910B013C8138130AC0809100
:101740000C01B81206C080910D014B8148135BC09B
:1017500055C0C0920A015C8150930B01B0920C01FC
:10176000812C912CD12CB601082C02C0759567955F
:101770000A94E2F76170772781E06827882D0E943C
:10178000730F9FEF891A990A28E08216910459F77E
:10179000812C912C3C81C32ED12CB601082C02C087
:1017A000759567950A94E2F76170772741E06427A1
:1017B00088E0880D0E94730F5FEF851A950A88E014
:1017C0008816910451F7C12CD12C8B2C912CB4018B
:1017D0000C2C02C0759567950A94E2F76170772723
:1017E00091E0692780E18C0D0E94730F2FEFC21AE0
:1017F000D20A36E0C316D10451F7A5CF80910E016D
:10180000A81609F48EC04B8140930D01A0920E01E1
:10181000842F417049831A8229813A8193E0220FF3
:10182000331F9A95E1F783FB992790F9292B81FBC8
:10183000222420F8312C220C331C220C331C222AA7
:1018400082FB002700F910E0000F111F202A00E0A2
:1018500010E0022C000C330861E02016310609F07C
:1018600060E08BE2800F0E94730F0F5F1F4F00310B
:10187000110591F75B815072598361E01B811071F2
:101880008B8184FD60E089E10E94730F61E011119A
:1018900001C060E088E10E94730F61E099819111BD
:1018A00060E08BE10E94730F61E02981211101C08A
:1018B00060E08AE10E94730F3B8137FF09C036FB6D
:1018C000EE24E0F8F12C002711270E191F0902C0A1
:1018D00001E010E080E090E0B12C9501082E02C0FC
:1018E000359527950A94E2F720FD03C08C010E5F21
:1018F0001F4F01968830910581F71A82198261E0A5
:1019000049815A810417150709F060E089818F5DCC
:101910000E94730F89819A8101969A8389830A971D
:1019200071F70F900F900F900F90DF91CF911F9153
:101930000F91FF90EF90DF90CF90BF90AF909F906E
:101940008F907F906F905F904F903F902F90089571
:10195000CF92DF92EF92FF929EEE980F823110F4B9
:10196000E82F01C0E92FF0E0EB55FE4F2AE030E010
:10197000C12CD12C7601849190917B0083FB44276C
:1019800040F950E0BA0145E0660F771F4A95E1F74C
:101990009F7D692B60937B008770806480937C00BF
:1019A00080917A00806480937A0080917A0086FD2D
:1019B000FCCF809178006091790090E0962B092E01
:1019C000000CAA0BBB0BC80ED91EEA1EFB1E215031
:1019D000310989F6C701B6012AE030E040E050E065
:1019E0000E94D91CC901FF90EF90DF90CF9008951D
:1019F00081E08093E70282E2809309031092E8027B
:101A000010920A0360910F018BE593E00E945C083D
:101A10000C947E0FEF92FF920F931F93CF93DF935F
:101A200000D000D000D0CDB7DEB78FE789838A839E
:101A30008B838C838D838E830E94CB0980E40E94EC
:101A400072090E94AF090E94CB0980EC0E947209C2
:101A50008E010F5F1F4F7E0187E0E80EF11CF80139
:101A600081918F010E9472090E151F05C1F70E9416
:101A7000AF090E94CB0980911001877088680E948D
:101A8000720926960FB6F894DEBF0FBECDBFDF9168
:101A9000CF911F910F91FF90EF900C94AF0990E0C0
:101AA000FC013197EF30F105B0F5E959FF4F0C9487
:101AB000CC1E809180008F7703C0809180008F7D45
:101AC00080938000089580918000877FF9CF84B54E
:101AD0008F7702C084B58F7D84BD0895809190007A
:101AE0008F7707C0809190008F7D03C08091900018
:101AF000877F8093900008958091C0008F7703C006
:101B00008091C0008F7D8093C00008958091C200B5
:101B1000877F8093C20008957F928F929F92AF92A9
:101B2000BF92CF92DF92EF92FF920F931F93CF93CA
:101B3000DF93CDB7DEB7ADB6BEB68091CF032DB77C
:101B40003EB7281B31090FB6F8943EBF0FBE2DBF1C
:101B50008DB79EB701966C01E0909E03F12C8091A9
:101B60009A0390919B03D601FC019F01281B390B1E
:101B70002E153F051CF421912D93F7CF80919F03E3
:101B8000882369F1809196039091970397FD0AC08D
:101B900068E671E00E94B81E6DE270E00E94B81E17
:101BA000262F01C028E0809198039091990397FD1A
:101BB00009C068E671E00E94B81E6DE270E00E9404
:101BC000B81E01C068E0F601EE0DFF1D30E1639F15
:101BD000C0011124822B8083C70101967C018601FC
:101BE0000E0D1F1D2091A4033091A5034091A20367
:101BF0005091A30360918003709181038091A003B1
:101C000081700E949412E80EF91E86010E0D1F1DB0
:101C10002091A8033091A9034091A6035091A703F6
:101C200060918203709183038091A00386958170F7
:101C30000E949412E80EF91E86010E0D1F1D2091C0
:101C4000AC033091AD034091AA035091AB03609176
:101C50008403709185038091A00382FB882780F91B
:101C60000E949412E80EF91E86010E0D1F1D209190
:101C7000B0033091B1034091AE035091AF03609136
:101C80008603709187038091A00383FB882780F9E6
:101C90000E949412E80EF91E86010E0D1F1D209160
:101CA000B4033091B5034091B2035091B3036091F6
:101CB0008803709189038091A003829581700E94AE
:101CC0009412E80EF91E86010E0D1F1D2091B80317
:101CD0003091B9034091B6035091B70360918A03E4
:101CE00070918B038091A00385FB882780F90E9467
:101CF0009412E80EF91E86010E0D1F1D2091BC03E3
:101D00003091BD034091BA035091BB0360918E03A3
:101D100070918F038091A10381700E949412E80E4C
:101D2000F91E86010E0D1F1D2091C0033091C103C5
:101D30004091BE035091BF0360918C0370918D035D
:101D40008091A103869581700E949412E80EF91E7D
:101D500086010E0D1F1D2091C4033091C5034091D3
:101D6000C2035091C30360919003709191038091DD
:101D7000A10382FB882780F90E949412E80EF91EC5
:101D800086010E0D1F1D2091C8033091C90340919B
:101D9000C6035091C70360919203709193038091A1
:101DA000A10383FB882780F90E9494128E0D9F1D4A
:101DB0008601080F191F2091CC033091CD0340916B
:101DC000CA035091CB036091940370919503809165
:101DD000A103829581700E9494120091CF0310E0BC
:101DE0007090CE0380917803811105C00E942C125F
:101DF00081E08093780348019FEF891A990AEDB733
:101E0000FEB7E819F9090FB6F894FEBF0FBEEDBF93
:101E10002DB73EB72F5F3F4F79017182A801B60100
:101E2000C90101960E94132080916A03A401B701A1
:101E300080640E9499040FB6F894BEBE0FBEADBE7A
:101E4000DF91CF911F910F91FF90EF90DF90CF9096
:101E5000BF90AF909F908F907F900895982F969508
:101E600096959695E0919A03F0919B03E90FF11DE9
:101E7000282F277081E090E0A0E0B0E004C0880F38
:101E8000991FAA1FBB1F2A95D2F72081822B80831E
:101E900080919C0381110C948C0D089590919D0369
:101EA000891700F5982F969596959695E0919A0347
:101EB000F0919B03E90FF11D282F277081E090E03E
:101EC000A0E0B0E004C0880F991FAA1FBB1F2A958D
:101ED000D2F7809590818923808380919C03811122
:101EE0000C948C0D0895611102C00C944E0F9091CA
:101EF0009D03891710F40C942E0F089530910A0356
:101F0000313208F04BC08091E6028111FCCF9091F4
:101F1000090322E02093E60221E02093E5022FEF5F
:101F20002093E4021092E3023093E202E9EEF2E041
:101F3000A2ECB2E020E0321721F041914D932F5FE7
:101F4000FACF1092C1022091C102990F922B909367
:101F5000C1029091C002913061F41092C002909140
:101F6000C1029093BB009091BC0093FDF8CF95EC1B
:101F700001C095EE9093BC009091E6029230E1F39F
:101F80009091E4029F3F79F08091E402803241F029
:101F90008091E402803331F084E005C081E003C029
:101FA00082E001C083E01092E80210920A031092CE
:101FB000E70208952091BF02211103C08FEF9FEF28
:101FC00008955FB7F89422E02093E9002091F20091
:101FD00030E01216130614F421E030E0422FFC0129
:101FE00084E6415038F0289A8093BE029091F10027
:101FF0009193F7CF2115310521F08091F2008823CC
:1020000019F05FBFC90108958BE68093E800F9CF0E
:10201000CF93DF93282F30E0F901E75EFD4F8491E5
:10202000F901E650FE4FD491F901E552FE4FC491FB
:10203000CC2391F081110E944F0DEC2FF0E0EE0FB8
:10204000FF1FE353FE4FA591B491EC91ED2381E086
:1020500090E021F480E002C080E090E0DF91CF9139
:1020600008951F93CF93DF93282F30E0F901E75EA7
:10207000FD4F8491F901E650FE4FD491F901E552EC
:10208000FE4FC491CC23C1F0162F81110E944F0D39
:10209000EC2FF0E0EE0FFF1FE154FE4FA591B4913D
:1020A0009FB7F894111104C08C91D095D82302C029
:1020B000EC91DE2BDC939FBFDF91CF911F910895B0
:1020C000CF93DF93C0EDD3E060E08A810E943110AE
:1020D00060E08B810E94311061E08A810E943110A2
:1020E00061E08B81DF91CF910C943110CF93DF931E
:1020F000C0EDD3E061E08A810E94311061E08B8104
:102100000E94311060E08B810E94311060E08A8172
:10211000DF91CF910C943110CF93DF9390E0FC01CD
:10212000E650FE4F2491FC01E552FE4F8491882336
:1021300061F190E0880F991FFC01EF54FE4FC591AB
:10214000D491FC01E154FE4FA591B491611109C0F5
:102150009FB7F8948881209582238883EC912E2361
:102160000BC0623061F49FB7F8948881322F3095AC
:1021700083238883EC912E2B2C939FBF06C08FB7AF
:10218000F894E8812E2B28838FBFDF91CF9108959B
:10219000CF93DF93D82FC8E060E08091D2030E94F4
:1021A00031106D2F61708091D3030E94311061E076
:1021B0008091D2030E943110D695C15069F760E03A
:1021C0008091D2030E94311061E08091D3030E947C
:1021D000311061E08091D2030E94311060E0809163
:1021E000D3030E948C108091D60390E08230910539
:1021F00038F0880F991F880F991F05970197F1F7FD
:102200008091D3030E940810C82F61E08091D3030E
:102210000E948C1060E08091D3030E943110809165
:10222000D60390E08230910538F0880F991F880F0F
:10223000991F05970197F1F78C2FDF91CF910895A2
:10224000FF920F931F93CF93DF93EC01F62E6093D1
:10225000E7030E94761080E40E94C8100E9460107C
:102260000E94761080EC0E94C81000E010E080917F
:10227000D403081708F5E02FF0E0E053FC4F9781F6
:10228000DE01A90FB11D8C91E82FEF77EC93E331BC
:1022900020F4F0E0E257FE4F05C0E63220F4F0E013
:1022A000E859FE4F1081F91609F087FD1068812F5B
:1022B0000E94C8100F5FDBCF0E9460100E94761052
:1022C0008091D50388680E94C810DF91CF911F913B
:1022D0000F91FF900C946010EFEDF3E080E181939B
:1022E00093E0E73EF907D9F76FEF8FED93E00C9499
:1022F0002011CF92DF92EF92FF920F931F93CF9313
:10230000DF936B017C01EFEDF3E080E1819393E0DB
:10231000E73EF907D9F7C091D403D0E08E01015010
:10232000110920E030E0A901C701B6010E94B21BEB
:1023300087FF0DC0F7FAF094F7F8F094CE010297FA
:10234000F801E053FC4F21E12787E8018C0120E0F0
:1023500030E040E251E4C701B6010E94801E87FDD3
:102360000DC020E030E040E251E4C701B6010E9418
:10237000D81D6B017C0101501109E9CFC053DC4F1E
:102380002197CE01805D934097FD1AC0C701B60129
:102390000E944A1E6F87072E000C880B990B0E9423
:1023A000B91B9B01AC01C701B6010E946B1D20E067
:1023B00030E040E251E40E94181C6B017C01E0CF48
:1023C000602F8FED93E0DF91CF911F910F91FF90E0
:1023D000EF90DF90CF900C9420113FB7F89480914C
:1023E000BA029091BB02A091BC02B091BD0226B589
:1023F000A89B05C02F3F19F00196A11DB11D3FBF3D
:10240000BA2FA92F982F8827820F911DA11DB11DCA
:10241000BC01CD0142E0660F771F881F991F4A95C6
:10242000D1F70895CF92DF92EF92FF920E94ED11C3
:102430006B017C010E94ED11DC01CB018C199D091F
:10244000AE09BF09883E9340A105B10598F3FF90FE
:10245000EF90DF90CF90089581E080936B0380939D
:102460006C0321E733E030936E0320936D031092E9
:10247000700310926F0325EA31E0309368032093D4
:1024800067031092730310927203109275031092F7
:102490007403809376038093770381EC80937103B8
:1024A0000E944405FC01218180916B0390E0820F22
:1024B000911D0897C4F5A281B381109729F487E68E
:1024C00093E0938382830EC018968D919C91199707
:1024D000009711F0DC01F8CF87E693E019969C9302
:1024E0008E931897808180936903818180936A031A
:1024F000908180916C03890F808380E090916B03C1
:10250000891788F4A0916D03B0916E03A80FB11DD7
:102510009C91A181B0E0A85DBE4F9C9391819F5F8B
:1025200091838F5FEBCF0895CF92DF92EF92FF926E
:102530000F931F93CF93DF93D901E80142175307FD
:102540001CF0FA01690102C06A01F9018823E1F176
:10255000CB016C157D050CF4C6019F018E179F07FA
:102560000CF49C01A417B50734F4CF01821B930B24
:102570009C012C0D3D1D0D2C000CEE08FF08C9011F
:10258000330FAA0BBB0B9C01AD012C193D094E0961
:102590005F09AEEFBFEF0E94F81C8F01FF0F220B07
:1025A000330BA90198012C193D094E095F090E94BE
:1025B000D91CDA01C9018F5F9F47A109B10988833E
:1025C000998382E090E002C080E090E0DF91CF91BB
:1025D0001F910F91FF90EF90DF90CF900895CF93D0
:1025E000DF93CDB7DEB72E970FB6F894DEBF0FBEE0
:1025F000CDBF789484B5826084BD84B5816084BD8C
:1026000085B5826085BD85B5816085BD80916E0090
:10261000816080936E0010928100809181008260C1
:1026200080938100809181008160809381008091FE
:10263000800081608093800080919100826080930F
:102640009100809191008160809391008091900031
:102650008160809390008091C10084608093C1006C
:102660008091C10082608093C1008091C10081602F
:102670008093C1008091C30081608093C3008091EA
:10268000C00082608093C0008091C200816080930E
:10269000C20080917A00846080937A0080917A00F1
:1026A000826080937A0080917A00816080937A00C2
:1026B00080917A00806880937A001092BF02109215
:1026C000DD011092DC018091D70081608093D700FA
:1026D00080EA8093D80089B5806189BD89B5826020
:1026E00089BD09B400FEFDCF0E9412128091D8006E
:1026F0008F7C80618093D8008091E000807F809300
:10270000E0008091E1008E7E8093E1008DE0809377
:10271000E200559A209A5D9828981092E301109251
:10272000E2011092E80210920A031092E60281E0A0
:102730008093E5021092C00261E082E00E943110B5
:1027400061E083E00E9431108091B9008E7F809318
:10275000B9008091B9008D7F8093B90088E480939F
:10276000B80085E48093BC0081E098E09093E1019B
:102770008093E00182E098E09093DF018093DE0196
:1027800062E081E00E948C108FE898E0909307014E
:1027900080930601809169008F738068809369003F
:1027A000EB9A05E411E062E0F80181918F010E944B
:1027B0008C10F1E00A341F07B1F78EE08093D2034A
:1027C0008FE08093D30316E01093D40361E08EE092
:1027D0000E948C1061E08091D2030E94311061E070
:1027E0008091D3030E948C1061E08091D3030E94FA
:1027F00031108091D403843079F493E09093D7031F
:1028000092E09093D80391E09093D9031092DA0369
:102810008093DB0385E00FC083E08093D70384E0DF
:102820008093D80385E08093D9031092DA0381E086
:102830008093DB0382E08093DC031093DD0387E069
:102840008093DE030E946C1161E08EE00E948C1088
:1028500061E08FE00E948C1061E08EE00E943110F8
:1028600061E08FE00E94311011E010939C030E9400
:102870008C0D1092A3031092A2038FEF93E090931C
:10288000A5038093A4031092AB031092AA03909324
:10289000AD038093AC031092AF031092AE039093FC
:1028A000B1038093B00362E0809113010E948C1009
:1028B00062E0809114010E948C106091140180915B
:1028C00013010E941D0B80931A01109217011092A0
:1028D0001601109219011092180110921B0180E24A
:1028E0000E940D0B81E20E940D0B82E20E940D0BF3
:1028F00083E20E940D0B84E20E940D0B8FE3809314
:102900000F011093E70282E2809309031092E8021C
:1029100010920A036FE38BE593E00E945C080E942B
:102920007E0F8FEF9FEF90931803809317030E9401
:102930003A0B9E012F5F3F4F3E872D87772473947C
:102940008FB7F894C090E901D090EA01E090EB01D4
:10295000F090EC018FBF66246A948BE093E00E94B4
:102960006502181619060CF0A7C18BE093E00E94CF
:102970001F038D3091F38A3081F3E0912D028C3268
:1029800009F05CC0F0E0E351FE4F108210922D027E
:102990008091ED01882309F48FC16DE370E08DEE25
:1029A00091E00E941C20009709F486C18C010D5E05
:1029B000114009F481C12C013FEF431A530AC201AF
:1029C0000E94DD194B015C01C2010E94FF191B012D
:1029D0002C010430110551F444E050E067ED71E042
:1029E0008DEE91E00E942720892B29F1ED85FE854F
:1029F0002CE011922A95E9F70C30110508F05CC122
:102A0000A8016DEE71E0CE0101960E941320FE0137
:102A10003196819180538A3008F04EC1CF014D85A7
:102A20005E85841B950B8017910798F3CE01019664
:102A30000E94E11911C08CE99FEF0EC0EF3348F4FA
:102A400091E09E0F90932D02F0E0E351FE4F8083C2
:102A500084CF10922D0281CF8C395FEF950709F05A
:102A600042C00E946C111092300210922F021092FC
:102A70002E0210923C0210923D0210923E021092E1
:102A80003F0210923B0210E0812F0E944E0F1F5F09
:102A90001B33D1F76FE360930F017092E70282E27C
:102AA000809309031092E80210920A038BE593E0E9
:102AB0000E945C080E947E0F10922D0260920E010F
:102AC00060920D0160920C0160920B0160920A010C
:102AD0001092E5011092E6011092E7011092E801D0
:102AE0001092E4013ACFFC013197E131F10508F091
:102AF00034CFEA5AFF4F0C94CC1E92E029163104D1
:102B00004104510464F0C201B1010E94B91B20E0EC
:102B100030E04AE754E40E94D81D4B015C012CEAE6
:102B200035EC47E257E3C501B4010E946B1D9F7766
:102B30002DEB37E346E855E30E94B21B87FF03C045
:102B400070922E0218C027E137EB41E559E3C50129
:102B5000B4010E946B1D9F772DEB37E346E855E3E8
:102B60000E94B21B87FF03C070922F0204C0109214
:102B70002F0210922E0220E030E040E85FE3C50112
:102B8000B4010E94B21B87FF07C02DEB37E346E07C
:102B900055E3C501B40116C020E030E04AE754E433
:102BA000C501B4010E94181C0E94851E0E94B91B19
:102BB00020E030E04AE754E40E94D81D22E63EEBD4
:102BC0004CEB58E30E946C1D4B015C010E94791193
:102BD00080923C0290923D02A0923E02B0923F024F
:102BE000BCCE20E030E040EE50E4C501B4010E94CC
:102BF000181C0E944A1E77FD06C0683071052CF033
:102C000067E070E002C060E070E06093D50360931D
:102C1000100120E030E040E85FE3C501B4010E940C
:102C2000B21B87FF9ACE80903C0290903D02A0900C
:102C30003E02B0903F0220E030E0A901C501B4019E
:102C40000E94801E18160CF088CEC501B4010E94A7
:102C5000791183CE0E946C1110923C0210923D02B9
:102C600010923E0210923F0278CE0E940A0D75CE5D
:102C700081E02A9423282428252809F080E08093E5
:102C800030026BCE80910F012A9423282428252816
:102C900011F4806401C08F7B80930F010E94F80CB7
:102CA0005CCE80910F012A9423282428252811F432
:102CB0008068F2CF8F77F0CF60911401809113017B
:102CC0000E941D0B90911B01992321F0833011F478
:102CD00010921B01E0911A0134E0E39FF0011124EE
:102CE000E82B80931A01F0E0EB5CFE4F2081222359
:102CF00041F1309115018091160190911701230245
:102D0000800D911D11242091180130911901A90104
:102D10004F5F5F4F8430910524F004979A01F7CFFD
:102D20000496522F432F215031098D3F6FEF9607A4
:102D3000BCF39093170180931601509318014093B0
:102D40001901809135028823B1F08091370290916A
:102D50003802A0913902B0913A02A7019601281BCE
:102D6000390B4A0B5B0B57FD06C0809136020E945F
:102D70004E0F1092350280913502811186C08091EC
:102D8000310290913202A0913302B0913402A70136
:102D90009601281B390B4A0B5B0B57FD76C08091BF
:102DA0003002882349F010921901109218011092F4
:102DB00017011092160169C080911B01811165C035
:102DC0008091180190911901009709F45EC01CF1DF
:102DD00080912F02811119C07092350287E1809392
:102DE0003602D701C6014296A11DB11D809337025C
:102DF00090933802A0933902B0933A0280919D03D8
:102E0000883118F087E10E942E0F8091180190916F
:102E10001901019722C080912E02811119C0709270
:102E2000350286E180933602D701C6014296A11D84
:102E3000B11D8093370290933802A0933902B0936A
:102E40003A0280919D03873118F086E10E942E0F8F
:102E50008091180190911901019690931901809326
:102E6000180170921B011092170110921601D701E0
:102E7000C601805B9F4FAF4FBF4F8093310290934D
:102E80003202A0933302B09334020E943A0B809135
:102E9000400290914102A0914202B0914302A701E9
:102EA0009601281B390B4A0B5B0B57FDB3C082E11F
:102EB0000E94A80C8C0183E10E94A80C5C018CE1AB
:102EC0000E94A80C4C01083E33E013074CF52090FB
:102ED0003C0230903D0240903E0250903F0220E084
:102EE00030E0A901C201B1010E94801E18160CF544
:102EF00027E030E0D8010E94D21E2CEF33E040E002
:102F000050E00E94D91C37FF02C020E030E020933F
:102F1000D50320931001C201B1010E94791120C094
:102F2000083E43E0140729F00E940A0D70923B020C
:102F300017C020E030E0A90160913C0270913D0291
:102F400080913E0290913F020E94B21B811108C005
:102F500080913B02882321F00E946C1110923B0269
:102F6000B0928703A092860380919C0381110E94F6
:102F70008C0D909281038092800380919C0381113B
:102F80000E948C0D109385030093840380919C0311
:102F900081110E948C0D85E4A82E81E0B82E00E0FE
:102FA00010E0F50181915F010E940810892B39F032
:102FB0000F5F1F4F05301105A1F70FEF1FEF809135
:102FC00011019091120180179107B9F08F3FFFEF27
:102FD0009F0719F0845E0E944E0F0F3F2FEF1207DC
:102FE00041F08CE1800F90919D03891710F40E94AD
:102FF0002E0F109312010093110134E1C30ED11C66
:10300000E11CF11CC0924002D0924102E0924202C7
:10301000F092430240E050E0452B09F491CC0E942D
:1030200000008CCCCF92DF92EF92FF921F93CF9350
:10303000DF93CDB7DEB7C659D1090FB6F894DEBF1E
:103040000FBECDBF10920E0310920D0388EE93E0D9
:10305000A0E0B0E080930F0390931003A0931103BE
:10306000B093120321EB31E030930C0320930B0358
:103070002FEF3FEF309318032093170310925E0356
:1030800010925D0380935F0390936003A0936103AC
:10309000B093620383EC91E090935C0380935B03B5
:1030A00085ED91E09093D1038093D0036FEF60930F
:1030B000D2036093D30386E08093D40323E020936C
:1030C000D5038AE08093D60310929B0310929A0353
:1030D00010929E031092A3031092A2038FEF93E02D
:1030E0009093A5038093A4031092A7031092A603C4
:1030F0009093A9038093A8031092AB031092AA03A4
:103100009093AD038093AC031092AF031092AE0383
:103110009093B1038093B0031092B3031092B20363
:103120009093B5038093B4031092B7031092B60343
:103130009093B9038093B8031092BB031092BA0323
:103140009093BD038093BC031092BF031092BE0303
:103150009093C1038093C0031092C3031092C203E3
:103160009093C5038093C4031092C7031092C603C3
:103170009093C9038093C8031092CB031092CA03A3
:103180009093CD038093CC032093CE033BE3309305
:103190009D0310929F038DE08093A0031092A103E2
:1031A00095E0998311E01A8389E08B839C83E1EA9F
:1031B000ED831E8345E84F83288799878A8749E1F5
:1031C0004B871C8749E24D873E8745E14F87188A28
:1031D00045E2498B1A8B55E75B8B1C8B45E94D8B80
:1031E0003E8B35E53F8B188E35E6398F1A8E31E8E8
:1031F0003B8F72E07C8F5D8F1E8F4F8F98A339A31A
:103200002AA39BA31CA38DA31EA396E19FA318A78B
:1032100090E899A796E29AA76BA79FE79CA75DA75E
:1032200090E19EA74FA728ABE9AB1AAA8BAB90E31E
:103230009CAB8DAB92E39EAB8FAB83E388AF39AF92
:103240007AAF80EC8BAF8CAF8CE390E00E94ED1EE8
:103250006C018CE3FE013196D60101900D928A95A6
:10326000E1F787E090E00E94ED1E7C01FC011182F5
:103270001082D382C2828CE390E09583848316828D
:1032800080917803811104C00E942C12109378035E
:10329000E0917203F0917303309729F4F092730375
:1032A000E092720308C080819181009711F0FC01C7
:1032B000FACFF182E0822091740330917503F70117
:1032C00084819581820F931F90937503809374037B
:1032D00090919D03892F869586958695977009F024
:1032E0008F5F80939E0310919E03812F90E00E9438
:1032F000ED1E90939B0380939A0381E090919F032E
:10330000911101C080E01A5F180F1093CF03109243
:103310008103109280031092830310928203109213
:1033200085031092840310928703109286031092F3
:1033300089031092880310928B0310928A031092D3
:103340008D0310928C0310928F0310928E031092B3
:103350009103109290031092930310929203109293
:103360009503109294038FEF9FEF909397038093B0
:103370009603909399038093980380E090E02091C6
:103380009E0330E0821793074CF4E0919A03F0918A
:103390009B03E80FF91F10820196F1CFCA56DF4F49
:1033A0000FB6F894DEBF0FBECDBFDF91CF911F9156
:1033B000FF90EF90DF90CF900895662777270C94C9
:1033C000431AFC0188279927E89421912032E9F3D8
:1033D000293010F02E30C8F32B3241F02D3239F461
:1033E000689404C00E943B1A820F911D21912053C2
:1033F0002A30C0F31EF4909581959F4F08951F9336
:10340000FC0199278827BC01E89411911032E9F357
:10341000193010F01E30C8F31B3251F01D3249F440
:10342000689406C00E94261A610F711D811D911DAE
:10343000119110531A30B0F33EF490958095709529
:1034400061957F4F8F4F9F4F1F910895592F482FA0
:10345000372F262F660F771F881F991F660F771F3C
:10346000881F991F620F731F841F951F660F771F98
:10347000881F991F08957AE0979F902D879F802D30
:10348000910D11240895A0E0B0E0E9E4FAE10C9474
:10349000091DEC016B016115710519F0FB019183A8
:1034A00080837E01FFEFEF1AFF0A0881802F90E0F2
:1034B0000E94911B892B11F0E701F3CF0D3239F4F3
:1034C0007E0182E0E80EF11C098111E008C00B3298
:1034D00029F47E0192E0E90EF11C098110E0E70178
:1034E000219743E050E064EF70E0CE010E949A1B08
:1034F000892BC1F4239645E050E06FEE70E0CE01D9
:103500000E949A1B892B09F42596C114D10419F045
:10351000F601D183C0831111F6C060E070E080E84D
:103520009FE7FAC043E050E06CEE70E0CE010E94ED
:103530009A1B892B59F4C114D10409F4E9C0F2E0B3
:10354000EF0EF11CF601F182E082E2C020E030E0F3
:10355000A901C0E0D0E0F70180EDA82EA00E89E01F
:103560008A1530F1912F9260B92E812F887012FF49
:1035700004C0811124C0219622C081112197A5E0A9
:10358000B0E00E94F81CDC01CB01880F991FAA1F34
:10359000BB1F9C01AD012A0D311D411D511D283954
:1035A00089E93807480789E1580748F0166006C0DE
:1035B0009EEFA9120AC013FD40C01860B12E8FEF14
:1035C000E81AF80A00811B2DC6CF802F8F7D853425
:1035D000A1F580818D3211F4106106C08B3221F08B
:1035E000319661E070E004C08181329662E070E063
:1035F00080538A3018F0E61BF70B1FC060E070E0C4
:1036000060389CE079075CF4DB01AA0FBB1FAA0FAE
:10361000BB1F6A0F7B1F660F771F680F711D3196E6
:10362000DF0111978C9180538A3050F314FF03C04F
:10363000719561957109C60FD71F11FF08C0C1149C
:10364000D10429F0CF010197F60191838083CA014B
:10365000B9010E94B71B212F2370233019F04B01B1
:103660005C0106C04B015C01B7FAB094B7F8B094A6
:1036700020E030E0A901C501B4010E94B21B8823FB
:1036800009F43EC0D7FF06C0D195C195D1090BE022
:1036900011E002C003E211E06801F8E1CF1AD1089D
:1036A00090E2E92EF12CCE15DF0574F0F80125919A
:1036B000359145915491C501B4010E94181C4B01EC
:1036C0005C01CE19DF09EFCF04501109F594E7949E
:1036D0000C151D0541F78A2D880F8B2D881F8F3FF4
:1036E00049F020E030E0A901C501B4010E94B21BFD
:1036F000811106C082E290E09093E9038093E80391
:10370000C501B40109C060E070E080E89FEF04C02B
:1037100060E070E080EC9FE7CDB7DEB7ECE00C94A2
:10372000251D91110C94851C803219F0895085500B
:10373000C8F70895FB01DC014150504088F08D919D
:1037400081341CF08B350CF4805E659161341CF083
:103750006B350CF4605E861B611171F3990B089553
:10376000881BFCCF0E94F41B08F481E00895E894C4
:1037700009C097FB3EF490958095709561957F4FB9
:103780008F4F9F4F9923A9F0F92F96E9BB27939567
:10379000F695879577956795B795F111F8CFFAF477
:1037A000BB0F11F460FF1BC06F5F7F4F8F4F9F4FA8
:1037B00016C0882311F096E911C0772321F09EE806
:1037C000872F762F05C0662371F096E8862F70E06C
:1037D00060E02AF09A95660F771F881FDAF7880F46
:1037E0009695879597F90895990F0008550FAA0B9C
:1037F000E0E8FEEF16161706E807F907C0F0121604
:103800001306E407F50798F0621B730B840B950B06
:1038100039F40A2661F0232B242B252B21F408955B
:103820000A2609F4A140A6958FEF811D811D0895F8
:103830000E942B1C0C949F1C0E94911C38F00E942B
:10384000981C20F0952311F00C94881C0C948E1C6D
:1038500011240C94D31C0E94B01C70F3959FC1F3EB
:10386000950F50E0551F629FF001729FBB27F00D2E
:10387000B11D639FAA27F00DB11DAA1F649F662783
:10388000B00DA11D661F829F2227B00DA11D621FD2
:10389000739FB00DA11D621F839FA00D611D221F8C
:1038A000749F3327A00D611D231F849F600D211D70
:1038B000822F762F6A2F11249F5750409AF0F1F0F3
:1038C00088234AF0EE0FFF1FBB1F661F771F881F5C
:1038D00091505040A9F79E3F510580F00C94881CF0
:1038E0000C94D31C5F3FE4F3983ED4F38695779510
:1038F0006795B795F795E7959F5FC1F7FE2B880F02
:10390000911D9695879597F9089599278827089589
:1039100097F99F6780E870E060E008959FEF80EC82
:10392000089500240A941616170618060906089525
:1039300000240A9412161306140605060895092E8B
:103940000394000C11F4882352F0BB0F40F4BF2BFA
:1039500011F460FF04C06F5F7F4F8F4F9F4F08953A
:1039600057FD9058440F551F59F05F3F71F0479530
:10397000880F97FB991F61F09F3F79F08795089515
:10398000121613061406551FF2CF4695F1DF08C034
:10399000161617061806991FF1CF86957105610551
:1039A00008940895E894BB2766277727CB0197F9F9
:1039B0000895052E97FB1EF400940E94F01C57FDFD
:1039C00007D00E943A1D07FC03D04EF40C94F01C63
:1039D00050954095309521953F4F4F4F5F4F08953B
:1039E00090958095709561957F4F8F4F9F4F08956B
:1039F0000E945C1DA59F900DB49F900DA49F800D0B
:103A0000911D112408952F923F924F925F926F92D1
:103A10007F928F929F92AF92BF92CF92DF92EF925E
:103A2000FF920F931F93CF93DF93CDB7DEB7CA1BDF
:103A3000DB0B0FB6F894DEBF0FBECDBF09942A880A
:103A4000398848885F846E847D848C849B84AA84B2
:103A5000B984C884DF80EE80FD800C811B81AA813F
:103A6000B981CE0FD11D0FB6F894DEBF0FBECDBF0A
:103A7000ED010895A1E21A2EAA1BBB1BFD010DC08A
:103A8000AA1FBB1FEE1FFF1FA217B307E407F5070E
:103A900020F0A21BB30BE40BF50B661F771F881FEA
:103AA000991F1A9469F760957095809590959B0180
:103AB000AC01BD01CF010895A29FB001B39FC00129
:103AC000A39F700D811D1124911DB29F700D811D4A
:103AD0001124911D08955058BB27AA270E94831DC9
:103AE0000C949F1C0E94911C38F00E94981C20F09E
:103AF00039F49F3F19F426F40C948E1C0EF4E095D3
:103B0000E7FB0C94881CE92F0E94B01C58F3BA17ED
:103B1000620773078407950720F079F4A6F50C94E3
:103B2000D21C0EF4E0950B2EBA2FA02D0B01B9017B
:103B300090010C01CA01A0011124FF27591B99F023
:103B4000593F50F4503E68F11A16F040A22F232F2F
:103B5000342F4427585FF3CF469537952795A7957F
:103B6000F0405395C9F77EF41F16BA0B620B730B26
:103B7000840BBAF09150A1F0FF0FBB1F661F771F97
:103B8000881FC2F70EC0BA0F621F731F841F48F44C
:103B9000879577956795B795F7959E3F08F0B0CFD5
:103BA0009395880F08F09927EE0F979587950895BC
:103BB0000E94EC1D0C949F1C0E94981C58F00E94BF
:103BC000911C40F029F45F3F29F00C94881C51119E
:103BD0000C94D31C0C948E1C0E94B01C68F3992387
:103BE000B1F3552391F3951B550BBB27AA276217F9
:103BF0007307840738F09F5F5F4F220F331F441F06
:103C0000AA1FA9F335D00E2E3AF0E0E832D0915039
:103C10005040E695001CCAF72BD0FE2F29D0660F26
:103C2000771F881FBB1F261737074807AB07B0E869
:103C300009F0BB0B802DBF01FF2793585F4F3AF06F
:103C40009E3F510578F00C94881C0C94D31C5F3F68
:103C5000E4F3983ED4F3869577956795B795F795F5
:103C60009F5FC9F7880F911D9695879597F90895DD
:103C7000E1E0660F771F881FBB1F62177307840779
:103C8000BA0720F0621B730B840BBA0BEE1F88F788
:103C9000E09508950E94511E6894B1110C94D31CB4
:103CA00008950E94B81C88F09F5798F0B92F992763
:103CB000B751B0F0E1F0660F771F881F991F1AF017
:103CC000BA95C9F714C0B13091F00E94D21CB1E08E
:103CD00008950C94D21C672F782F8827B85F39F08D
:103CE000B93FCCF3869577956795B395D9F73EF4B0
:103CF00090958095709561957F4F8F4F9F4F089558
:103D00000E94F41B08F48FEF08950E94B81C58F12C
:103D10009E5760F19851A0F0E9F0983020F5092EF7
:103D20009927660F771F881F991F0A94D1F712C031
:103D3000062E672F782F8827985F11F4000C07C094
:103D4000993FB4F38695779567959395D9F7611D5B
:103D5000711D811D3EF490958095709561957F4F02
:103D60008F4F9F4F089568940C94D31C0C94D21CD1
:103D700097FB072E16F4009407D077FD09D00E9418
:103D8000D91E07FC05D03EF4909581959F4F08956C
:103D9000709561957F4F0895EE0FFF1F0590F49188
:103DA000E02D09940E945C1DB7FF0895821B930BC0
:103DB0000895AA1BBB1B51E107C0AA1FBB1FA61772
:103DC000B70710F0A61BB70B881F991F5A95A9F7C4
:103DD00080959095BC01CD0108950F931F93CF93CB
:103DE000DF938230910510F482E090E0E091EC03E3
:103DF000F091ED0320E030E0A0E0B0E0309719F161
:103E0000408151810281138148175907C8F08417F6
:103E1000950769F4109731F012960C931297139648
:103E20001C9327C00093EC031093ED0322C02115CF
:103E3000310519F04217530718F49A01BD01EF013B
:103E4000DF01F801DBCF21153105F9F0281B390B13
:103E50002430310580F48A819B816115710521F040
:103E6000FB019383828304C09093ED038093EC0362
:103E7000FE01329644C0FE01E20FF31F819391933D
:103E800022503109398328833AC02091EA033091C6
:103E9000EB03232B41F42091310130913201309317
:103EA000EB032093EA0320912F013091300121157B
:103EB000310541F42DB73EB74091330150913401A3
:103EC000241B350BE091EA03F091EB03E217F307B3
:103ED000A0F42E1B3F0B2817390778F0AC014E5F7A
:103EE0005F4F2417350748F04E0F5F1F5093EB03C9
:103EF0004093EA038193919302C0E0E0F0E0CF01A8
:103F0000DF91CF911F910F910895CF93DF93009789
:103F100009F481C0FC01329713821282A091EC0354
:103F2000B091ED03109781F420813181820F931FAE
:103F30002091EA033091EB032817390751F5F093EC
:103F4000EB03E093EA0367C0ED0120E030E0CE1719
:103F5000DF0740F44A815B819E0141155105F1F074
:103F6000EA01F5CFD383C28340815181840F951F2D
:103F7000C817D90759F488819981840F951F029633
:103F8000918380838A819B8193838283211531056C
:103F900029F4F093ED03E093EC033DC0E901FB83CA
:103FA000EA8349915991C40FD51FEC17FD0761F4BD
:103FB00080819181840F951F0296E90199838883FE
:103FC000828193819B838A83E0E0F0E012968D9159
:103FD0009C911397009719F0FD01DC01F7CF8D91AB
:103FE0009C9111979D012E5F3F4F820F931F20914F
:103FF000EA033091EB032817390769F4309729F465
:104000001092ED031092EC0302C013821282B0935F
:10401000EB03A093EA03DF91CF91089581E090E054
:10402000F8940C943520FB01DC0102C001900D9244
:1040300041505040D8F70895FC018191861721F036
:104040008823D9F7992708953197CF010895FB0167
:10405000DC014150504030F08D910190801919F4ED
:0E4060000020B9F7881B990B0895F894FFCF44
:10406E0093019301930193019301FFFFFFFFFFFF64
:10407E0007FFFF041501000000000000FFFFFFFF17
:10408E0000E100000000000000C18081000000007F
:10409E0000EE03800000FF0100010000FFFF0000A2
:1040AE00010001FF0005060708093F065B4F666D1C
:1040BE007D077F6F098958484CD35F777C395E79CD
:1040CE00713D76060E753837545C7367506D783EC9
:1040DE001C9C766E5B39520F23080074100000385A
:1040EE0000545C00005000311C1C000000003F0614
:1040FE005B4F666D7D077F6F777C395E797100400F
:10410E006300000000B802DB089808DF0200000020
:10411E00003F022E056002550265021F03FB0200DE
:10412E000000005C082F088C0803082708130804F9
:0C413E0008000000007F02717569740029
:00000001FF
