:100000000C9402010C942A010C942A010C942A01EC
:100010000C942A010C942A010C942A010C942A01B4
:100020000C942A010C942A010C9423040C94860548
:100030000C942A010C942A010C942A010C942A0194
:100040000C942A010C942A010C942A010C942A0184
:100050000C942A010C942A010C942A010C943F0F51
:100060000C942A010C942A010C942A010C942A0164
:100070000C942A010C942A010C942A010C942A0154
:100080000C942A010C942A010C942A010C942A0144
:100090000C94C4070C942A010C942A010C942A0194
:1000A0000C942A010C942A010C942A01B412AB126C
:1000B000A2129912C712C712C71275127E12C71266
:1000C000C71287129012C712C712C712BD12480C6E
:1000D0004B0C3A0C3E0C440C6C0C6C0C6C0C4F0C26
:1000E000530C570C5D0C610C6C0C670C080B000278
:1000F00002020100090400000102020000052400C0
:100100001001052401010104240206052406000152
:100110000705810310004009040100020A000000E5
:1001200007050202400000070583024000000403A7
:10013000090412010002EF020140412325A0000141
:100140000102030141726475696E6F204C4C4300DB
:10015000536B7944656653696D204D692D323420A7
:10016000576561706F6E2050616E656C0007060503
:10017000040100080A0B0C0D0900000000240027F0
:10018000002A002D00300000000000250028002B70
:10019000002E003100000000002300260029002C62
:1001A000002F0004040404040304050202020204F4
:1001B0000302020202060606060606040402020202
:1001C0000404040802011040804010204080408058
:1001D00008020401804020100201108010204040DD
:1001E000200000000200090F0000030401000C00C1
:1001F00000000000000000000000000000000000FF
:100200005413890F11241FBECFEFDAE0DEBFCDBF3C
:1002100011E0A0E0B1E0E4EEF0E302C005900D9241
:10022000A439B107D9F723E0A4E9B1E001C01D92D8
:10023000A13AB207E1F711E0C1E0D1E004C0219793
:10024000FE010E942D16C030D107C9F70E948F0F02
:100250000C9465180C9400004091290250912A02D8
:10026000209127023091280242175307B4F490914D
:10027000E8009570E1F39091E80092FD19C0809339
:10028000F1008091290290912A0201968F7399279B
:10029000892B19F48EEF8093E800809129029091C8
:1002A0002A02019690932A028093290281E0089500
:1002B00080E00895DF92EF92FF920F931F93CF9308
:1002C000DF93D82EF92EE42E062F10E0C8010196F8
:1002D000880F0E942C0183E00E942C01CD2DDF2D80
:1002E0000C0F1D1FC017D10789F0E7FE03C0FE01E8
:1002F000849101C088810E942C01F82E80E00E9428
:100300002C018F2121968111EDCF01C081E0DF9179
:10031000CF911F910F91FF90EF90DF900895DF92A2
:10032000EF92FF920F931F93CF93DF93D82E8A0102
:100330007B01E40EF51EEB01CE15DF0571F0D7FE53
:1003400003C0FE01849101C088810E942C01219686
:100350008111F2CF8FEF9FEF01C0C801DF91CF91E4
:100360001F910F91FF90EF90DF9008952FB7F894B1
:1003700087708093E9009091E800892F807295FF43
:1003800004C09091F20080E4891B2FBF0895615052
:1003900030F02091F100FC0120830196F8CF289ADB
:1003A00084E6809396030895CF92DF92EF92FF92B6
:1003B0000F931F93CF93DF936C017A018B01C0E001
:1003C000D0E0CE15DF0581F0D8016D918D01D60109
:1003D000ED91FC910190F081E02DC6010995892BEA
:1003E00011F02196EECF7E01C701DF91CF911F91D1
:1003F0000F91FF90EF90DF90CF900895CF93DF9310
:100400001F92CDB7DEB76983DC01ED91FC910280CC
:10041000F381E02D41E050E0BE016F5F7F4F099511
:100420000F90DF91CF91089583E08093E900809150
:10043000F200882319F08AE38093E800089583E0AE
:100440000E94B60190E00895FC018485958597FD92
:100450000BC09FB7F89482E08093E9008091F2008E
:100460009FBF90E0019608959FB7F89482E0809333
:10047000E9008091F2009FBF90E0089585ED8093A0
:10048000BC008091BC0084FDFCCF10923502089521
:100490004091D401262F30E0240F311D2132310547
:1004A000DCF4209135022430C9F4FC0180E090E0B6
:1004B000861758F43091D4012191DC01AC54BE4F21
:1004C000A30FB11D2C930196F3CF8091D401680F37
:1004D0006093D40180E0089581E0089582E008955A
:1004E000089508950895E091390280913802E8173F
:1004F00030F4F0E0EC56FE4F808190E008958FEFED
:100500009FEF08959091390280913802981750F426
:10051000E92FF0E0EC56FE4F208130E09F5F909392
:10052000390202C02FEF3FEFC901089580913802D0
:1005300090E020913902821B91090895CF93DF93B7
:10054000CB01EA01642F0E944802CE01DF91CF91D6
:100550000895CF93DF931F92CDB7DEB7698361E033
:10056000CE0101960E94480281E090E00F90DF9159
:10057000CF91089580E090E00895DC01FB01129690
:100580008C91129790E02481358182179307D1F4E2
:1005900091818081813A31F481E0913091F0933002
:1005A00089F411C0813271F49B3021F482811F964D
:1005B0008C9305C09A3031F4828150968C9381E0FF
:1005C0000895089580E00895DC01FB0188E48083AC
:1005D00089E4818384E482831D969C911D979F709A
:1005E0009F5B93831D968D919C911E9724E0969519
:1005F00087952A95E1F78F708F5B848385E0089556
:10060000EF92FF920F931F93CF93DF93FB01208113
:10061000213869F52381223251F5DC0112962C91A3
:1006200030E0448155814217530709F58C01FC01E4
:10063000C385D485E12CF12C209799F04C815D8104
:100640006A817B818E81811180E80E948F018F3FBA
:10065000FFEF9F0779F0E80EF91E0990D881C02DB1
:10066000EBCF81E0D8011F968C93C70105C080E0D5
:1006700090E002C08FEF9FEFDF91CF911F910F911C
:10068000FF90EF900895CF93DF93CDB7DEB76997D2
:100690000FB6F894DEBF0FBECDBFFC01DB018C911D
:1006A0008F5F8C93BE016F5F7F4F89E1DB011D92ED
:1006B0008A95E9F729E0298384E08A8391E09D8384
:1006C00083E08E832A8721E22B879C879D879F87E3
:1006D00022E2288B27E02B8B25E02C8B8E8B20E4CD
:1006E00030E0388F2F8B998F82818B83958586851B
:1006F000998B8A8B838180688D8B49E150E080E003
:100700000E948F0169960FB6F894DEBF0FBECDBF71
:10071000DF91CF910895FC0182818F5BFB01808383
:1007200081E008950F931F93CF93DF931F92CDB76E
:10073000DEB78C01FC018485958597FF0EC0CE0144
:1007400001960E94580E019719F4898190E002C029
:100750008FEF9FEFF80195878487F8018485958551
:100760000F90DF91CF911F910F910895CF93DF9359
:100770001F92CDB7DEB7FC018485958597FD05C036
:100780002FEF3FEF358724870BC0CE0101960E94E3
:10079000580E019719F4898190E002C08FEF9FEF06
:1007A0000F90DF91CF910895909135029111FCCF78
:1007B00091E090933502909334022FEF2093F7014C
:1007C000109219021092180290931A0290911A0234
:1007D000880F892B80931A0280913302813061F453
:1007E0001092330280911A028093BB008091BC006A
:1007F00083FDF8CF85EC01C085EE8093BC0080912D
:1008000035028130E1F380911902811103C090918A
:10081000190201C091E0A8EFB1E0E4E9F1E080E065
:10082000891721F02D9121938F5FFACF1092390211
:1008300080933802882329F087E193E00E948202A6
:1008400008958FEF08951F920F920FB60F92112403
:100850008F939F938091E1009091E100937F90931B
:10086000E10083FF0FC01092E90091E09093EB004C
:100870001092EC0092E39093ED001092970398E0B1
:100880009093F00082FF20C093E09093E900909154
:10089000F200992319F09AE39093E80090912C02CA
:1008A000992339F090912C02915090932C02992326
:1008B00089F190919603992339F090919603915084
:1008C00090939603992341F184FF10C08091E20038
:1008D0008E7E81608093E2008091E1008F7E809324
:1008E000E10080912D028E7E806111C080FF16C0D4
:1008F0008091E2008E7E80618093E2008091E10031
:100900008E7E8093E10080912D028E7E81608093A7
:100910002D0204C05D98CDCF2898D6CF9F918F919E
:100920000F900FBE0F901F9018957F928F929F92FD
:10093000AF92BF92CF92DF92EF92FF920F931F93ED
:10094000CF93DF93C82E8B017A0180919703811199
:1009500003C08FEF9FEF70C080912D0280FF05C014
:100960008091E00082608093E000CE2DDF2DD12CBD
:100970008AEFB82E8C2D8770982E8C2D8072882E41
:100980008C2D8074782E9AE3A92E209719F4DD20FF
:1009900009F44DC08C2D0E94B601811106C0BA9495
:1009A000BB20B9F20E94530BF0CF282F30E0C217C2
:1009B000D3070CF48C2F9FB7F8949092E900209104
:1009C000E80025FF32C0282F30E0C21BD30B88205F
:1009D00029F08150A0F01092F100FBCFF801C7FE82
:1009E0000AC0815050F044914093F1003196F9CF04
:1009F00041914093F1008150D8F7020F131FDD2081
:100A000019F0A092E8000AC08091E80085FD08C0B6
:100A1000A092E800DD24D394209739F0D12C05C0B2
:100A2000209719F47110A092E8009FBFAECF5D9A95
:100A300084E680932C02C701DF91CF911F910F9123
:100A4000FF90EF90DF90CF90BF90AF909F908F90EE
:100A50007F900895CF93DF93EC0180910B01882361
:100A600031F083E00E9495041816190634F081E0F5
:100A700090E09B838A8380E090E0DF91CF9108959E
:100A800080911F0281110DC082E080931B0284E0DF
:100A900080931C0210921E0210921D0281E080932E
:100AA0001F028BE192E008950F931F93CF93DF9382
:100AB0001F92CDB7DEB782E0898342E450E06CEE4E
:100AC00070E080E80E948F010E944005DC011296D0
:100AD0000D911C9113970115110589F0D801ED9125
:100AE000FC910280F381E02DBE016F5F7F4FC80152
:100AF000099597FD04C0F80100851185ECCF898127
:100B00000F90DF91CF911F910F9108951F920F9237
:100B10000FB60F921124CF92DF92EF92FF920F93B4
:100B20001F932F933F934F935F936F937F938F9375
:100B30009F93AF93BF93EF93FF93CF93DF93CDB783
:100B4000DEB76C97DEBFCDBF1092E9008091E80060
:100B500083FFFBC168E0CE0145960E94C70182EF8A
:100B60008093E8008D8987FF05C09091E80090FF91
:100B7000FCCF03C09EEF9093E800982F907609F089
:100B8000C6C09E894F89588D2F89F88C91110CC051
:100B9000803829F480912E028093F10002C01092D7
:100BA000F1001092F10045C1913051F4811141C121
:100BB0004130510509F03DC180912E028D7F0BC05F
:100BC000933061F4811135C14130510509F031C1D3
:100BD00080912E02826080932E022BC1953049F4C1
:100BE0008091E80080FFFCCF822F80688093E30033
:100BF00020C1963009F05EC00B8D1C8D22E0109252
:100C0000E90010922A0210922902F21232C01092C8
:100C10002802109227020E94540599E0BE016F5FDE
:100C20007F4FDB01E92F1D92EA95E9F79983FA825C
:100C300091E09E8390EA98879AEF99872091290204
:100C400030912A02275F3F4F3C832B838D83109284
:100C5000E90010922A0210922902109328020093B0
:100C6000270249E050E080E00E948F010E94540575
:100C7000E0C010932802009327020E944005DC0187
:100C800012960D911C9113970115110509F4BBC023
:100C9000D801ED91FC910480F581E02DBE016B5EE1
:100CA0007F4FC8010995009709F0C7C0F80100857A
:100CB0001185EACF973009F445C1983021F481E0DD
:100CC0008093F100B6C0993009F0B3C0837009F089
:100CD00039C1EDE2F1E081E031E096E320812111BC
:100CE00009C08EE78093EA001092EA008F89809312
:100CF00097039FC08093E9003093EB0021912093EC
:100D0000EC009093ED008F5F873041F7EACF8B8D39
:100D10009C8D1092E90010922A0210922902909361
:100D2000280280932702898D811153C08E899D8965
:100D3000913A49F4813209F005C147E050E064E09E
:100D400071E080E0BBC0913209F0FCC0833269F4ED
:100D50008F89988DA0E0B0E080930001909301010D
:100D6000A0930201B093030164C0803269F48091C2
:100D7000E80082FFFCCF67E084E091E00E94C701B9
:100D80008BEF8093E80055C0823209F052C08F8902
:100D900080930B01EEEFFFE7859194918B3F9C4D83
:100DA00019F0E0E0F8E002C0EEEFFAE08091040113
:100DB00090910501A0910601B0910701803B9440FC
:100DC000A105B10509F09EC080910B0180FF79C09B
:100DD00099C00E944005FC01028113810115110593
:100DE00009F4B0C0D801ED91FC910190F081E02DA3
:100DF000BE016B5E7F4FC801099581111AC0F801D1
:100E000000851185EBCFF1E0FF1609F44EC0F3E049
:100E1000FF1298C08F89882309F44AC0823089F470
:100E200040E86CE180E591E00E945A01882309F4D2
:100E300089C08EEF8093E80088C018161906CCF39D
:100E400081C0813029F440E86BE084E491E0ECCF8C
:100E5000833009F077C00E944005DC011296ED90C6
:100E6000FC9013978E010F5F1F4F6801E114F1048E
:100E700079F0D701ED91FC910680F781E02DB80162
:100E8000C7010995080F111DF701E084F184EECF29
:100E9000D8011C92F60101900020E9F73197BF01BB
:100EA0006C197D0940E0C601BFCF62E371E002C06A
:100EB0006EE271E0FB01449150E080E80E948F01F6
:100EC000B8CFEE3F2AE0F20751F080819181873759
:100ED000A7E79A0721F09093FF0A8093FE0A87E71D
:100EE00097E7918380838091600080932B029BE041
:100EF00088E10FB6F894A895809360000FBE909398
:100F0000600097CF808191818737974709F091CF13
:100F1000A8958091600088618093600080912B0289
:100F200080936000EE3FBAE0FB0739F08091FE0A43
:100F30009091FF0A918380837CCF1092FF0A1092D8
:100F4000FE0A77CF81E28093EB006C960FB6F8949F
:100F5000DEBF0FBECDBFDF91CF91FF91EF91BF916B
:100F6000AF919F918F917F916F915F914F913F9141
:100F70002F911F910F91FF90EF90DF90CF900F90E6
:100F80000FBE0F901F9018951F920F920FB60F92E1
:100F900011242F933F934F935F936F937F938F937E
:100FA0009F93AF93BF93EF93FF938091B900887F96
:100FB000803609F49CC068F5883209F45BC090F46F
:100FC000803109F454C038F4882309F4F6C088301D
:100FD00009F44DC0F6C0883109F44CC0803209F4E0
:100FE0005DC0EFC0803409F468C048F4803309F470
:100FF00055C0883309F0E5C08093F701D8C080352B
:1010000009F44FC0883509F45DC0883409F0D9C0AF
:10101000D6C0883909F4C7C0A8F4883709F467C076
:1010200038F4883609F463C0803709F460C0C9C059
:10103000883809F4B8C0803909F45FC0803809F0F5
:10104000C0C05BC0803B09F486C038F4803A09F424
:1010500066C0883A09F47FC0B4C0803C09F4A7C0D8
:10106000883C09F4A4C0883B09F48AC0AAC08091D6
:101070001A0210C09091190280911802981770F509
:10108000E091190281E08E0F80931902F0E0E850A0
:10109000FE4F80818093BB0085EC86C08093F70172
:1010A0008EC0E091190281E08E0F80931902809129
:1010B000BB00F0E0E850FE4F8083909119028091D0
:1010C00018026EC0E091190281E08E0F8093190220
:1010D0008091BB00F0E0E850FE4F808380913402A5
:1010E00081116DC081E08093330284EA61C083E0A6
:1010F000809335021092F601CFCF8091F6018032B5
:1011000008F051C0E091F60181E08E0F8093F60166
:101110008091BB00F0E0EA52FE4F8083BDCF85ECAA
:101120008093BC00109235028091F601803230F439
:10113000E091F601F0E0EA52FE4F10826091F60174
:1011400070E0E0912F02F091300286ED91E0099578
:101150001092F60136C084E0809335021092D501DA
:101160001092D401E0913102F09132020995809100
:10117000D401811105C081E08093D4011092B401A3
:10118000E091D50181E08E0F8093D501F0E0EC5421
:10119000FE4F80818093BB009091D5018091D40156
:1011A000981708F479CF85E88093BC000AC085ECD5
:1011B0008093BC001092350204C01092F7010E9487
:1011C0003E02FF91EF91BF91AF919F918F917F91DF
:1011D0006F915F914F913F912F910F900FBE0F90A4
:1011E0001F9018950F931F93CF93DF9340E050E02B
:1011F00063E971E08CE393E00E94130BC0E08C2F55
:101200000E94330ECF5FCF32D1F7C9E3D1E00BE4B8
:1012100011E08881229660E00E94AF0E0C171D0736
:10122000C1F710928202EAE3F2E082E892E01082D3
:1012300036968E179F07D9F710922101109222013E
:101240001092230110922A01109216011092170198
:101250001092180110921F0110920C0110920D01B2
:1012600010920E0110921401DF91CF911F910F91F6
:101270000895CF92DF92EF92FF92CF93C82F6A0129
:101280007B010E940F0EEAE3F2E080E090E0208113
:1012900021111AC026E0289FF001299FF00D11248A
:1012A000E65CFD4F81E08083C18384EBC80ED11CD6
:1012B000E11CF11CC282D382E482F582CF91FF90BF
:1012C000EF90DF90CF900895019636968C3091057F
:1012D000F1F68C2FCF91FF90EF90DF90CF900C9490
:1012E000330ECF92DF92EF92FF92CF93DF93EC0118
:1012F0008A8591E0811103C0662321F002C061114B
:1013000001C090E08881811104C081E088839983C5
:101310002DC08981891751F169017A019983992337
:1013200091F0BA01A9018F810E94390981E08A8375
:1013300084EFC80E81E0D81EE11CF11CCB82DC8258
:10134000ED82FE8213C01A828985882321F0888568
:101350000E94330E1986B701A6018F81DF91CF91CC
:10136000FF90EF90DF90CF900C943909DF91CF91EF
:10137000FF90EF90DF90CF9008954F925F926F9221
:101380007F928F929F92AF92BF92EF92FF920F93B4
:101390001F93CF93DF9380E20E94D403C4E000E068
:1013A00010E0E82EF12CC701002E02C0959587951C
:1013B0000A94E2F780FD04C08C2F0E940F0E03C038
:1013C0008C2F0E94330E0F5F1F4FCF5FCC3059F729
:1013D00082E20E94D40300E010E0E82EF12CC70165
:1013E000002E02C0959587950A94E2F780FD04C00F
:1013F0008C2F0E940F0E03C08C2F0E94330E0F5FA4
:101400001F4FCF5FC43159F783E20E94D403D82F16
:10141000209183023091840240918502509186028E
:10142000682F617081E291E00E947109C5E101E0DD
:1014300010E0ED2EF12CC701002E02C09595879586
:101440000A94E2F780FD04C08C2F0E940F0E03C0A7
:101450008C2F0E94330E0F5F1F4FCF5FC93159F79A
:101460008D2F8871883121F485E20E940F0E03C010
:1014700085E20E94330ED67088E2D63019F40E94BD
:101480000F0E02C00E94330E84E20E94D403D82FB4
:10149000E82EF12CC70126E0959587952A95E1F76E
:1014A000909115018170911102C091E0892790916E
:1014B0000C01911106C091E090930C0180930D01F5
:1014C00041C090910D018917E9F1809083029090BD
:1014D0008402A0908502B090860280930D012401C1
:1014E000350194EF490E91E0591E611C711C88234F
:1014F00049F0B501A40189E20E94390981E0809395
:101500000E0116C010920E01109213018091140169
:10151000882329F08FE10E94330E10921401B50147
:10152000A4018CE20E94390981E080930E0182E0DF
:101530008093130140920F015092100160921101AB
:1015400070921201209183023091840240918502B1
:10155000509186026D2F661F6627661F86E191E017
:101560000E94710900E010E0C8010697029780F020
:10157000C701002E02C0959587950A94E2F780FD79
:1015800004C08C2F0E940F0E03C08C2F0E94330EBC
:101590000F5F1F4FCF5FC13239F787E2D5FF03C01E
:1015A0000E940F0E02C00E94330E82E2D4FF03C0DD
:1015B0000E940F0E02C00E94330E86E2D3FF03C0CA
:1015C0000E940F0E02C00E94330E83E2D2FF03C0BE
:1015D0000E940F0E02C00E94330E84E2D1FF10C0A1
:1015E000DF91CF911F910F91FF90EF90BF90AF903F
:1015F0009F908F907F906F905F904F900C940F0E04
:10160000DF91CF911F910F91FF90EF90BF90AF901E
:101610009F908F907F906F905F904F900C94330EBF
:1016200008950E942E18EF92FF920F931F93CF936D
:10163000DF93EC017B018A0188819981009729F071
:101640002A813B8124173507F8F4B8016F5F7F4F7B
:101650000E946817009759F0998388831B830A8337
:101660002C813D81232B81F4FC0110820DC08881E7
:101670009981009711F00E94DF16198218821D824D
:101680001C821B821A8207C01D830C83B7018881CC
:1016900099810E945018CE01DF91CF911F910F9137
:1016A000FF90EF900895CF92DF92EF92FF920E9409
:1016B0001A0F6B017C010E941A0FDC01CB018C19FF
:1016C0009D09AE09BF09883E9340A105B10598F375
:1016D000FF90EF90DF90CF90089581E080932703F3
:1016E000809328032DE233E030932A0320932903CB
:1016F00010922C0310922B0327E531E03093240342
:101700002093230310922F0310922E031092310383
:1017100010923003809332038093330381EC8093E3
:101720002D030E944005FC0121818091270390E058
:10173000820F911D0897C4F5A281B381109729F4F7
:1017400083E293E0938382830EC018968D919C91DF
:101750001997009711F0DC01F8CF83E293E0199616
:101760009C938E9318978081809325038181809329
:101770002603908180912803890F808380E09091D7
:101780002703891788F4A0912903B0912A03A80F91
:10179000B11D9C91A181B0E0A45DBE4F9C9391814D
:1017A0009F5F91838F5FEBCF0895CF92DF92EF928F
:1017B000FF920F931F93CF93DF93D901E801421754
:1017C00053071CF0FA01690102C06A01F90188237C
:1017D000E1F1CB016C157D050CF4C6019F018E175C
:1017E0009F070CF49C01A417B50734F4CF01821BAA
:1017F000930B9C012C0D3D1D0D2C000CEE08FF08D9
:10180000C901330FAA0BBB0B9C01AD012C193D097B
:101810004E095F09AEEFBFEF0E94A6158F01FF0FC3
:10182000220B330BA90198012C193D094E095F09C0
:101830000E948715DA01C9018F5F9F47A109B1098D
:101840008883998382E090E002C080E090E0DF919D
:10185000CF911F910F91FF90EF90DF90CF9008955F
:1018600090E0FC013197EF30F105B0F5E959FF4FF9
:101870000C942D16809180008F7703C0809180009A
:101880008F7D80938000089580918000877FF9CFBD
:1018900084B58F7702C084B58F7D84BD0895809113
:1018A00090008F7707C0809190008F7D03C080915A
:1018B0009000877F8093900008958091C0008F777B
:1018C00003C08091C0008F7D8093C00008958091F7
:1018D000C200877F8093C20008957F928F929F926B
:1018E000AF92BF92CF92DF92EF92FF920F931F932E
:1018F000CF93DF93CDB7DEB7ADB6BEB6809191037F
:101900002DB73EB7281B31090FB6F8943EBF0FBE66
:101910002DBF8DB79EB701966C01E0906003F12C4E
:1019200080915C0390915D03D601FC019F01281B0F
:10193000390B2E153F051CF421912D93F7CF809183
:101940006103882369F1809158039091590397FDB1
:101950000AC068E671E00E9419166DE270E00E940C
:101960001916262F01C028E080915A0390915B033D
:1019700097FD09C068E671E00E9419166DE270E0FB
:101980000E94191601C068E0F601EE0DFF1D30E15E
:10199000639FC0011124822B8083C70101967C01C3
:1019A00086010E0D1F1D2091660330916703409143
:1019B00064035091650360914203709143038091E9
:1019C000620381700E94D50BE80EF91E86010E0D90
:1019D0001F1D20916A0330916B0340916803509161
:1019E0006903609144037091450380916203869579
:1019F00081700E94D50BE80EF91E86010E0D1F1D89
:101A000020916E0330916F0340916C0350916D03F0
:101A100060914603709147038091620382FB88279F
:101A200080F90E94D50BE80EF91E86010E0D1F1DD0
:101A300020917203309173034091700350917103B0
:101A400060914803709149038091620383FB88276A
:101A500080F90E94D50BE80EF91E86010E0D1F1DA0
:101A60002091760330917703409174035091750370
:101A700060914A0370914B0380916203829581705B
:101A80000E94D50BE80EF91E86010E0D1F1D209138
:101A90007A0330917B0340917803509179036091F0
:101AA0004C0370914D038091620385FB882780F978
:101AB0000E94D50BE80EF91E86010E0D1F1D209108
:101AC0007E0330917F0340917C0350917D036091B0
:101AD0005003709151038091630381700E94D50B74
:101AE000E80EF91E86010E0D1F1D20918203309114
:101AF0008303409180035091810360914E03709164
:101B00004F0380916303869581700E94D50BE80E88
:101B1000F91E86010E0D1F1D20918603309187034B
:101B20004091840350918503609152037091530357
:101B30008091630382FB882780F90E94D50BE80E11
:101B4000F91E86010E0D1F1D20918A0330918B0313
:101B5000409188035091890360915403709155031B
:101B60008091630383FB882780F90E94D50B8E0D3B
:101B70009F1D8601080F191F20918E0330918F033E
:101B800040918C0350918D036091560370915703DF
:101B900080916303829581700E94D50B009191031F
:101BA00010E07090900380913403811105C00E9471
:101BB0006D0B81E08093340348019FEF891A990AE5
:101BC000EDB7FEB7E819F9090FB6F894FEBF0FBEDE
:101BD000EDBF2DB73EB72F5F3F4F79017182A8014E
:101BE000B601C90101960E94331880912603A40111
:101BF000B70180640E9495040FB6F894BEBE0FBE74
:101C0000ADBEDF91CF911F910F91FF90EF90DF90CC
:101C1000CF90BF90AF909F908F907F9008959091BC
:101C20005F038917F8F4982F969596959695E0910D
:101C30005C03F0915D03E90FF11D282F277081E00F
:101C400090E0A0E0B0E004C0880F991FAA1FBB1F5E
:101C50002A95D2F72081822B808380915E038111A7
:101C60000C946D0C089590915F03891700F5982FDF
:101C7000969596959695E0915C03F0915D03E90F3A
:101C8000F11D282F277081E090E0A0E0B0E004C0B3
:101C9000880F991FAA1FBB1F2A95D2F780959081A4
:101CA0008923808380915E0381110C946D0C0895CB
:101CB00020919703211103C08FEF9FEF08955FB725
:101CC000F89422E02093E9002091F20030E012160F
:101CD000130614F421E030E0422FFC0184E6415069
:101CE00038F0289A809396039091F1009193F7CF62
:101CF0002115310521F08091F200882319F05FBF92
:101D0000C90108958BE68093E800F9CFCF93DF9364
:101D1000282F30E0F901EF51FE4F8491F901EE5385
:101D2000FE4FD491F901ED55FE4FC491CC2391F0B3
:101D300081110E94300CEC2FF0E0EE0FFF1FEB56EC
:101D4000FE4FA591B491EC91ED2381E090E021F458
:101D500080E002C080E090E0DF91CF9108951F9372
:101D6000CF93DF93282F30E0F901EF51FE4F84919C
:101D7000F901EE53FE4FD491F901ED55FE4FC49198
:101D8000CC23C1F0162F81110E94300CEC2FF0E013
:101D9000EE0FFF1FE957FE4FA591B4919FB7F8943E
:101DA000111104C08C91D095D82302C0EC91DE2B88
:101DB000DC939FBFDF91CF911F910895CF93DF9365
:101DC00090E0FC01EE53FE4F2491FC01ED55FE4FD7
:101DD0008491882361F190E0880F991FFC01E758F6
:101DE000FE4FC591D491FC01E957FE4FA591B491E6
:101DF000611109C09FB7F894888120958223888358
:101E0000EC912E230BC0623061F49FB7F894888167
:101E1000322F309583238883EC912E2B2C939FBFF8
:101E200006C08FB7F894E8812E2B28838FBFDF91EF
:101E3000CF9108953FB7F8948091990390919A03B8
:101E4000A0919B03B0919C0326B5A89B05C02F3F92
:101E500019F00196A11DB11D3FBFBA2FA92F982FD0
:101E60008827820F911DA11DB11DBC01CD0142E04B
:101E7000660F771F881F991F4A95D1F708951F9203
:101E80000F920FB60F9211242F933F938F939F932E
:101E9000AF93BF938091920390919303A091940389
:101EA000B09195033091980323E0230F2D3720F450
:101EB0000196A11DB11D05C026E8230F0296A11DA4
:101EC000B11D209398038093920390939303A09362
:101ED0009403B09395038091990390919A03A091F4
:101EE0009B03B0919C030196A11DB11D80939903A2
:101EF00090939A03A0939B03B0939C03BF91AF91DF
:101F00009F918F913F912F910F900FBE0F901F9037
:101F1000189580913C0390913D030C94DF16CF936C
:101F2000DF93CDB7DEB72C970FB6F894DEBF0FBEA8
:101F3000CDBF789484B5826084BD84B5816084BD52
:101F400085B5826085BD85B5816085BD80916E0057
:101F5000816080936E001092810080918100826088
:101F600080938100809181008160809381008091C5
:101F700080008160809380008091910082608093D6
:101F800091008091910081608093910080919000F8
:101F90008160809390008091C10084608093C10033
:101FA0008091C10082608093C1008091C1008160F6
:101FB0008093C1008091C30081608093C3008091B1
:101FC000C00082608093C0008091C20081608093D5
:101FD000C20080917A00846080937A0080917A00B8
:101FE000826080937A0080917A00816080937A0089
:101FF00080917A00806880937A0010929703109203
:102000002E0210922D028091D70081608093D7001C
:1020100080EA8093D80089B5806189BD89B58260E6
:1020200089BD09B400FEFDCF0E94530B8091D800FA
:102030008F7C80618093D8008091E000807F8093C6
:10204000E0008091E1008E7E8093E1008DE080933E
:10205000E200559A209A5D98289811E010935E034B
:102060000E946D0C109239021092380210923702C1
:1020700010923602109235021093340210923302FD
:1020800061E082E00E94AF0E61E083E00E94AF0E4B
:102090008091B9008E7F8093B9008091B9008D7FC7
:1020A0008093B90088E48093B80085E48093BC00F5
:1020B00080E792E0909332028093310281E792E0D0
:1020C0009093300280932F0260E085E10E94DE0E43
:1020D00010926503109264038FEF93E0909367036F
:1020E0008093660309E311E0F80180810E5F1F4FC2
:1020F00061E00E94DE0EF1E00B341F07A9F762E0F9
:102100008FE00E94DE0E62E082E10E94DE0E62E05D
:1021100083E10E94DE0E62E084E10E94DE0E8FEF1A
:102120009FEF9093D4028093D30262E081E00E94FB
:10213000DE0E0E94BD099E012F5F3F4F690172E3D1
:10214000472E512C612C712C8FB7F89480909203FC
:1021500090909303A0909403B09095038FBF8092CA
:10216000830290928402A0928502B09286020AE3D2
:1021700012E0F8018081882389F082819381A48113
:10218000B581A5019401281B390B4A0B5B0B57FD48
:1021900005C081810E94330EF80110820A5F1F4F33
:1021A00022E832E02017310721F7809123018823AC
:1021B00009F18091240190912501A0912601B0910F
:1021C0002701A5019401281B390B4A0B5B0B57FD16
:1021D00011C01092230180912201882359F080912F
:1021E0002A01811107C0809129010E940F0E31E060
:1021F00030932A0180911801882309F180911901F7
:1022000090911A01A0911B01B0911C01A5019401AC
:10221000281B390B4A0B5B0B57FD11C0109218019C
:1022200080911701882359F080911F01811107C007
:1022300080911E010E940F0E31E030931F018091AA
:102240000E01882369F180910F0190911001A091F6
:102250001101B0911201A5019401281B390B4A0B01
:102260005B0B57FD1DC01091130110920E011092CF
:102270001301113071F480910D01882389F0809150
:10228000140181110DC08FE10E940F0E10931401F3
:1022900007C0123029F4B501A40189E20E9439096E
:1022A00087EC92E00E942402181619060CF07DC1FA
:1022B00087EC92E00E94B6038D3091F3E0918202A8
:1022C0008C3219F08A3009F065C1AE2FB0E0A95701
:1022D000BD4F1C92EE2309F45AC1809187028823D6
:1022E00009F455C163E871E087E892E00E9447185D
:1022F000892B19F40E94F2084AC16DE370E087E867
:1023000092E00E943C18009709F441C1AC01475883
:1023100052407A0109F43BC18C010F5F1F4F54E01A
:10232000E516F10409F09FC044E050E063E871E075
:1023300087E892E00E945718892BE1F244E050E0D0
:1023400068E871E087E892E00E945718892B09F04D
:102350008AC01A8219821C821B821E821D8201156C
:10236000110561F0F80101900020E9F73197AF0104
:10237000401B510BB801C6010E94130B80913C0316
:1023800090913D03009741F069817A816115710553
:1023900009F077C10E94DF1689819A8190933D03ED
:1023A00080933C038B819C8190933F0380933E03F9
:1023B0008D819E8190934103809340031A821982FC
:1023C00089819A810E94DF16A0903C03B0903D0362
:1023D000A114B10409F4DBC0009140031091410342
:1023E0000115110509F4D3C0750147018FEF881A53
:1023F000980AF7018081082E000C990B0E947B152A
:10240000892B11F07401F1CF015011090A0D1B1D28
:10241000F8018081082E000C990B0E947B15892BF6
:1024200031F00E151F0518F001501109F1CFA80168
:102430004F5F5F4F4E195F09509341034093400334
:10244000AE14BF0420F4B701C5010E943318E09117
:102450003C03F0913D038091400390914103E80FCC
:10246000F91F108294C0F6012CE011922A95E9F729
:102470003CE0E316F10408F08AC0A70167E872E0C7
:10248000C6010E943318F601819180538A3008F00A
:102490007EC0CF018C199D098E159F05A8F3C6013A
:1024A0000E9419157C01C8010E9437154B015C017F
:1024B0008091400390914103892B09F468C06DE835
:1024C00071E080913C0390913D030E944718892B55
:1024D00009F05DC0F701E451F240E131F10508F087
:1024E00056C0EA5AFF4F0C942D1661E08A94892851
:1024F0008A288B2809F060E08AE047C061E08A946E
:1025000089288A288B2809F060E089E03EC061E0D4
:102510008A9489288A288B2809F060E086E035C0F3
:1025200061E08A9489288A288B2809F060E085E098
:102530002CC061E08A9489288A288B2809F060E001
:1025400080E123C061E08A9489288A288B2809F0D9
:1025500060E08EE01AC061E08A9489288A288B287E
:1025600009F060E088E011C061E08A9489288A2837
:102570008B2809F060E084E008C061E08A94892833
:102580008A288B2809F060E087E00E94AF0E109245
:10259000820286CEEF33D8F791E09E0F90938202AD
:1025A000F0E0E957FD4F80837BCE22E330E0812CC1
:1025B000912C5401E0E7F1E0849190917B0083FB42
:1025C000222420F8312CA10165E0440F551F6A95A3
:1025D000E1F79F7D492B40937B0087708064809357
:1025E0007C0080917A00806480937A0080917A00E8
:1025F000F82FF074FF2E86FDF9CF8091780040917E
:10260000790090E0942B092E000CAA0BBB0B880ECE
:10261000991EAA1EBB1E2150310961F6C501B401E5
:10262000A30192010E948715309343032093420334
:1026300080915E0381110E946D0C0BE411E0F801A2
:1026400080810E5F1F4F0E94860E892B21F48F2DF3
:102650000E940F0E03C08F2D0E94330EF394F4E0FE
:10266000FF12EDCF81E00E94860E892B11F40E94AB
:10267000BD0920E030E0232B09F466CD0E94000064
:1026800063CD40913E0350913F032D813E8142171F
:10269000530708F47FCE0E9450188D819E8190933D
:1026A0004103809340038CCECF92DF92EF92FF9252
:1026B0001F93CF93DF93CDB7DEB7C659D1090FB6BD
:1026C000F894DEBF0FBECDBF1092CA021092C902AD
:1026D00088EE93E0A0E0B0E08093CB029093CC0230
:1026E000A093CD02B093CE0223E631E03093C8022E
:1026F0002093C7022FEF3FEF3093D4022093D302F1
:1027000010921A031092190380931B0390931C03D9
:10271000A0931D03B0931E0385E791E090931803E7
:102720008093170310925D0310925C031092600374
:1027300010926503109264038FEF93E09093670308
:1027400080936603109269031092680390936B0361
:1027500080936A0310926D0310926C0390936F0341
:1027600080936E0310927103109270039093730321
:102770008093720310927503109274039093770301
:1027800080937603109279031092780390937B03E1
:1027900080937A0310927D0310927C0390937F03C1
:1027A00080937E03109281031092800390938303A1
:1027B0008093820310928503109284039093870381
:1027C00080938603109289031092880390938B0361
:1027D00080938A0310928D0310928C0390938F0341
:1027E00080938E0353E0509390032FE220935F0376
:1027F0001092610311E0109362031092630395E05D
:1028000099831A8389E08B839C8371EA7D831E837D
:1028100035E83F83588799878A8739E13B871C874A
:1028200039E23D872E8735E13F87188A35E2398BBB
:102830001A8B45E74B8B1C8B35E93D8B2E8B25E5A1
:102840002F8B188E25E6298F1A8E21E82B8F62E0B8
:102850006C8F4D8F1E8F3F8F18A329A35AA39BA364
:102860001CA38DA31EA396E19FA318A790E899A788
:1028700096E29AA79FEF9BA79FE79CA74DA790E1A1
:102880009EA73FA718AB79AB1AAA8BAB80E38CABA2
:102890002DAB6EAB80EC8FAB88AF88E390E00E94ED
:1028A00047166C0188E3FE013196D60101900D9226
:1028B0008A95E1F787E090E00E9447167C01FC01D1
:1028C00011821082D382C28288E390E09583848350
:1028D000168280913403811104C00E946D0B109305
:1028E0003403E0912E03F0912F03309729F4F092F6
:1028F0002F03E0922E0308C080819181009711F090
:10290000FC01FACFF182E082209130033091310353
:10291000F70184819581820F931F909331038093F7
:10292000300390915F03892F8695869586959770E1
:1029300009F08F5F8093600310916003812F90E016
:102940000E94471690935D0380935C0381E0909111
:102950006103911101C080E01E5F180F1093910375
:1029600010924303109242031092450310924403C5
:1029700010924703109246031092490310924803A5
:1029800010924B0310924A0310924D0310924C0385
:1029900010924F0310924E03109251031092500365
:1029A0001092530310925203109255031092540345
:1029B00010925703109256038FEF9FEF9093590395
:1029C0008093580390935B0380935A0380E090E0D8
:1029D0002091600330E0821793074CF4E0915C0390
:1029E000F0915D03E80FF91F10820196F1CF10926C
:1029F0003D0310923C0310923F0310923E0310924D
:102A000041031092400340E050E063E971E08CE341
:102A100093E0CA56DF4F0FB6F894DEBF0FBECDBFAE
:102A2000DF91CF911F91FF90EF90DF90CF900C94AA
:102A3000130BFC0188279927E89421912032E9F3B0
:102A4000293010F02E30C8F32B3241F02D3239F4FA
:102A5000689404C00E947315820F911D2191205328
:102A60002A30C0F31EF4909581959F4F08951F93CF
:102A7000FC0199278827BC01E89411911032E9F3F1
:102A8000193010F01E30C8F31B3251F01D3249F4DA
:102A9000689406C00E945E15610F711D811D911D15
:102AA000119110531A30B0F33EF4909580957095C3
:102AB00061957F4F8F4F9F4F1F910895592F482F3A
:102AC000372F262F660F771F881F991F660F771FD6
:102AD000881F991F620F731F841F951F660F771F32
:102AE000881F991F08957AE0979F902D879F802DCA
:102AF000910D1124089591110C948415803219F0D0
:102B000089508550C8F70895992788270895052E7C
:102B100097FB1EF400940E949E1557FD07D00E945B
:102B2000E81507FC03D04EF40C949E155095409583
:102B3000309521953F4F4F4F5F4F08959095809569
:102B4000709561957F4F8F4F9F4F08950E940A1691
:102B5000A59F900DB49F900DA49F800D911D1124F1
:102B600008952F923F924F925F926F927F928F9231
:102B70009F92AF92BF92CF92DF92EF92FF920F930C
:102B80001F93CF93DF93CDB7DEB7CA1BDB0B0FB616
:102B9000F894DEBF0FBECDBF09942A8839884888D3
:102BA0005F846E847D848C849B84AA84B984C88469
:102BB000DF80EE80FD800C811B81AA81B981CE0F60
:102BC000D11D0FB6F894DEBF0FBECDBFED01089545
:102BD000A1E21A2EAA1BBB1BFD010DC0AA1FBB1F21
:102BE000EE1FFF1FA217B307E407F50720F0A21B93
:102BF000B30BE40BF50B661F771F881F991F1A9400
:102C000069F760957095809590959B01AC01BD0129
:102C1000CF010895A29FB001B39FC001A39F700D83
:102C2000811D1124911DB29F700D811D1124911DD4
:102C3000089597FB072E16F4009407D077FD09D06E
:102C40000E94331607FC05D03EF4909581959F4F66
:102C50000895709561957F4F0895EE0FFF1F0590C1
:102C6000F491E02D0994AA1BBB1B51E107C0AA1FD8
:102C7000BB1FA617B70710F0A61BB70B881F991F1D
:102C80005A95A9F780959095BC01CD0108950F93B1
:102C90001F93CF93DF938230910510F482E090E090
:102CA000E0919F03F091A00320E030E0A0E0B0E0CD
:102CB000309719F1408151810281138148175907DA
:102CC000C8F08417950769F4109731F012960C93A9
:102CD000129713961C9327C000939F031093A00391
:102CE00022C02115310519F04217530718F49A0133
:102CF000BD01EF01DF01F801DBCF21153105F9F04E
:102D0000281B390B2430310580F48A819B816115A1
:102D1000710521F0FB019383828304C09093A0038B
:102D200080939F03FE01329644C0FE01E20FF31F21
:102D30008193919322503109398328833AC020919D
:102D40009D0330919E03232B41F420913501309156
:102D5000360130939E0320939D03209133013091DF
:102D600034012115310541F42DB73EB740913701AB
:102D700050913801241B350BE0919D03F0919E0387
:102D8000E217F307A0F42E1B3F0B2817390778F042
:102D9000AC014E5F5F4F2417350748F04E0F5F1FA1
:102DA00050939E0340939D038193919302C0E0E072
:102DB000F0E0CF01DF91CF911F910F910895CF9354
:102DC000DF93009709F481C0FC01329713821282CD
:102DD000A0919F03B091A003109781F420813181CD
:102DE000820F931F20919D0330919E03281739076E
:102DF00051F5F0939E03E0939D0367C0ED0120E041
:102E000030E0CE17DF0740F44A815B819E01411517
:102E10005105F1F0EA01F5CFD383C283408151819E
:102E2000840F951FC817D90759F488819981840F99
:102E3000951F0296918380838A819B8193838283ED
:102E40002115310529F4F093A003E0939F033DC0C1
:102E5000E901FB83EA8349915991C40FD51FEC170F
:102E6000FD0761F480819181840F951F0296E9012D
:102E700099838883828193819B838A83E0E0F0E059
:102E800012968D919C911397009719F0FD01DC012A
:102E9000F7CF8D919C9111979D012E5F3F4F820F2F
:102EA000931F20919D0330919E032817390769F4E1
:102EB000309729F41092A00310929F0302C013824E
:102EC0001282B0939E03A0939D03DF91CF9108954A
:102ED000A0E0B0E0EEE6F7E10C94B515EC01009748
:102EE00021F4CB010E944716B4C0FC01E60FF71F86
:102EF0009C0122503109E217F30708F4A8C0D90158
:102F00000D911C91119706171707B0F005301105A8
:102F100008F49BC0C80104978617970708F495C06A
:102F200002501109061B170B019311936D937C93AB
:102F3000CF010E94DF1689C05B01A01AB10A4C01C3
:102F4000800E911EA0919F03B091A003612C712C63
:102F5000E12CF12C109709F446C08D919C911197AA
:102F6000A815B905B1F56C0142E0C40ED11CCA1414
:102F7000DB0478F14C018A189B08640142E0C40E1E
:102F8000D11C1296BC9012971396AC91B5E0CB165B
:102F9000D10440F0B282A38391828082D9016D93E3
:102FA0007C9309C00E5F1F4F800F911FF901918321
:102FB0008083EB2DFA2FE114F10431F0D701139641
:102FC000FC93EE93129741C0F093A003E0939F030C
:102FD0003CC06816790608F43C017D0112960D90FC
:102FE000BC91A02DB7CF80919D0390919E03881630
:102FF0009906E1F466167706C8F480913301909142
:103000003401009741F48DB79EB74091370150913C
:103010003801841B950BE817F907C8F4F0939E0359
:10302000E0939D03F901718360830FC0CB010E947F
:1030300047167C01009759F0A801BE010E94331881
:10304000CE010E94DF16C70104C0CE0102C080E09D
:1030500090E0CDB7DEB7EEE00C94D11581E090E0C2
:10306000F8940C946518FB01DC0102C001900D92EC
:1030700041505040D8F70895FC018191861721F006
:103080008823D9F7992708953197CF010895FB0137
:10309000DC018D91019080190110D9F3990B0895ED
:1030A000FB01DC0101900D920020E1F70895FB0186
:1030B000DC014150504030F08D910190801919F49D
:1030C0000020B9F7881B990B089511E0C1E0D1E009
:1030D00004C0FE010E942D162196C230D107C9F707
:0430E000F894FFCF92
:1030E400FFFFFFFF00E100000000000000000000FF
:1030F400000000000001000000000000002D20007E
:1031040000000000000000002E14000000C18081B7
:103114000000000000A10380000500060009000A69
:1031240000070010000E00080004000F0012001336
:1031340000140000000000BD0243030003E4020089
:10314400000000FE012A051F0214022402B60392A5
:103154000300000000A9029E02BA027202960282D3
:10316400027302717569740074797065004D692D7C
:0431740032345000A1
:00000001FF
